{
  "contractName": "ERC20",
  "abi": [
    {
      "anonymous": false,
      "inputs": [
        {
          "indexed": true,
          "internalType": "address",
          "name": "from",
          "type": "address"
        },
        {
          "indexed": false,
          "internalType": "uint256",
          "name": "amount",
          "type": "uint256"
        }
      ],
      "name": "Burn",
      "type": "event"
    },
    {
      "anonymous": false,
      "inputs": [
        {
          "indexed": true,
          "internalType": "address",
          "name": "to",
          "type": "address"
        },
        {
          "indexed": false,
          "internalType": "uint256",
          "name": "amount",
          "type": "uint256"
        }
      ],
      "name": "Mint",
      "type": "event"
    },
    {
      "anonymous": false,
      "inputs": [
        {
          "indexed": true,
          "internalType": "address",
          "name": "from",
          "type": "address"
        },
        {
          "indexed": true,
          "internalType": "address",
          "name": "to",
          "type": "address"
        },
        {
          "indexed": false,
          "internalType": "uint256",
          "name": "value",
          "type": "uint256"
        }
      ],
      "name": "Transfer",
      "type": "event"
    },
    {
      "inputs": [],
      "name": "decimals",
      "outputs": [
        {
          "internalType": "uint8",
          "name": "",
          "type": "uint8"
        }
      ],
      "stateMutability": "view",
      "type": "function"
    },
    {
      "inputs": [],
      "name": "mintingFinished",
      "outputs": [
        {
          "internalType": "bool",
          "name": "",
          "type": "bool"
        }
      ],
      "stateMutability": "view",
      "type": "function"
    },
    {
      "inputs": [],
      "name": "name",
      "outputs": [
        {
          "internalType": "string",
          "name": "",
          "type": "string"
        }
      ],
      "stateMutability": "view",
      "type": "function"
    },
    {
      "inputs": [],
      "name": "owner",
      "outputs": [
        {
          "internalType": "address",
          "name": "",
          "type": "address"
        }
      ],
      "stateMutability": "view",
      "type": "function"
    },
    {
      "inputs": [],
      "name": "symbol",
      "outputs": [
        {
          "internalType": "string",
          "name": "",
          "type": "string"
        }
      ],
      "stateMutability": "view",
      "type": "function"
    },
    {
      "inputs": [
        {
          "internalType": "address",
          "name": "_owner",
          "type": "address"
        }
      ],
      "name": "balanceOf",
      "outputs": [
        {
          "internalType": "uint256",
          "name": "",
          "type": "uint256"
        }
      ],
      "stateMutability": "view",
      "type": "function"
    },
    {
      "inputs": [
        {
          "internalType": "address",
          "name": "_to",
          "type": "address"
        },
        {
          "internalType": "uint256",
          "name": "_value",
          "type": "uint256"
        }
      ],
      "name": "transfer",
      "outputs": [
        {
          "internalType": "bool",
          "name": "",
          "type": "bool"
        }
      ],
      "stateMutability": "nonpayable",
      "type": "function"
    },
    {
      "inputs": [
        {
          "internalType": "address",
          "name": "_to",
          "type": "address"
        },
        {
          "internalType": "uint256",
          "name": "_amount",
          "type": "uint256"
        }
      ],
      "name": "mint",
      "outputs": [
        {
          "internalType": "bool",
          "name": "",
          "type": "bool"
        }
      ],
      "stateMutability": "nonpayable",
      "type": "function"
    },
    {
      "inputs": [
        {
          "internalType": "address",
          "name": "_tokenOwner",
          "type": "address"
        },
        {
          "internalType": "uint256",
          "name": "_amount",
          "type": "uint256"
        }
      ],
      "name": "burn",
      "outputs": [
        {
          "internalType": "bool",
          "name": "",
          "type": "bool"
        }
      ],
      "stateMutability": "nonpayable",
      "type": "function"
    },
    {
      "inputs": [
        {
          "internalType": "address",
          "name": "_from",
          "type": "address"
        },
        {
          "internalType": "address",
          "name": "_to",
          "type": "address"
        },
        {
          "internalType": "uint256",
          "name": "_value",
          "type": "uint256"
        }
      ],
      "name": "transferFrom",
      "outputs": [
        {
          "internalType": "bool",
          "name": "",
          "type": "bool"
        }
      ],
      "stateMutability": "nonpayable",
      "type": "function"
    },
    {
      "inputs": [],
      "name": "getOwner",
      "outputs": [
        {
          "internalType": "address",
          "name": "",
          "type": "address"
        }
      ],
      "stateMutability": "view",
      "type": "function"
    }
  ],
  "bytecode": "0x608060405260008060006101000a81548160ff02191690831515021790555033600060016101000a81548173ffffffffffffffffffffffffffffffffffffffff021916908373ffffffffffffffffffffffffffffffffffffffff16021790555034801561006b57600080fd5b506110968061007b6000396000f3fe608060405234801561001057600080fd5b50600436106100a95760003560e01c806370a082311161007157806370a0823114610168578063893d20e8146101985780638da5cb5b146101b657806395d89b41146101d45780639dc29fac146101f2578063a9059cbb14610222576100a9565b806305d2035b146100ae57806306fdde03146100cc57806323b872dd146100ea578063313ce5671461011a57806340c10f1914610138575b600080fd5b6100b6610252565b6040516100c39190610e11565b60405180910390f35b6100d4610263565b6040516100e19190610e2c565b60405180910390f35b61010460048036038101906100ff9190610c50565b61029c565b6040516101119190610e11565b60405180910390f35b6101226104f3565b60405161012f9190610ea9565b60405180910390f35b610152600480360381019061014d9190610c9f565b6104f8565b60405161015f9190610e11565b60405180910390f35b610182600480360381019061017d9190610c27565b6106d9565b60405161018f9190610e8e565b60405180910390f35b6101a0610722565b6040516101ad9190610df6565b60405180910390f35b6101be61074b565b6040516101cb9190610df6565b60405180910390f35b6101dc610771565b6040516101e99190610e2c565b60405180910390f35b61020c60048036038101906102079190610c9f565b6107aa565b6040516102199190610e11565b60405180910390f35b61023c60048036038101906102379190610c9f565b61090d565b6040516102499190610e11565b60405180910390f35b60008054906101000a900460ff1681565b6040518060400160405280600981526020017f566f7465546f6b656e000000000000000000000000000000000000000000000081525081565b60008073ffffffffffffffffffffffffffffffffffffffff168373ffffffffffffffffffffffffffffffffffffffff1614156102d757600080fd5b600160008573ffffffffffffffffffffffffffffffffffffffff1673ffffffffffffffffffffffffffffffffffffffff16815260200190815260200160002054821115610359576040517f08c379a000000000000000000000000000000000000000000000000000000000815260040161035090610e4e565b60405180910390fd5b6103ab82600160008773ffffffffffffffffffffffffffffffffffffffff1673ffffffffffffffffffffffffffffffffffffffff16815260200190815260200160002054610b6390919063ffffffff16565b600160008673ffffffffffffffffffffffffffffffffffffffff1673ffffffffffffffffffffffffffffffffffffffff1681526020019081526020016000208190555061044082600160008673ffffffffffffffffffffffffffffffffffffffff1673ffffffffffffffffffffffffffffffffffffffff16815260200190815260200160002054610bb090919063ffffffff16565b600160008573ffffffffffffffffffffffffffffffffffffffff1673ffffffffffffffffffffffffffffffffffffffff168152602001908152602001600020819055508273ffffffffffffffffffffffffffffffffffffffff168473ffffffffffffffffffffffffffffffffffffffff167fddf252ad1be2c89b69c2b068fc378daa952ba7f163c4a11628f55a4df523b3ef846040516104e09190610e8e565b60405180910390a3600190509392505050565b601281565b60008060019054906101000a900473ffffffffffffffffffffffffffffffffffffffff1673ffffffffffffffffffffffffffffffffffffffff163373ffffffffffffffffffffffffffffffffffffffff161461055357600080fd5b60008054906101000a900460ff161561056b57600080fd5b61058082600254610bb090919063ffffffff16565b6002819055506105d882600160008673ffffffffffffffffffffffffffffffffffffffff1673ffffffffffffffffffffffffffffffffffffffff16815260200190815260200160002054610bb090919063ffffffff16565b600160008573ffffffffffffffffffffffffffffffffffffffff1673ffffffffffffffffffffffffffffffffffffffff168152602001908152602001600020819055508273ffffffffffffffffffffffffffffffffffffffff167f0f6798a560793a54c3bcfe86a93cde1e73087d944c0ea20544137d4121396885836040516106619190610e8e565b60405180910390a28273ffffffffffffffffffffffffffffffffffffffff16600073ffffffffffffffffffffffffffffffffffffffff167fddf252ad1be2c89b69c2b068fc378daa952ba7f163c4a11628f55a4df523b3ef846040516106c79190610e8e565b60405180910390a36001905092915050565b6000600160008373ffffffffffffffffffffffffffffffffffffffff1673ffffffffffffffffffffffffffffffffffffffff168152602001908152602001600020549050919050565b60008060019054906101000a900473ffffffffffffffffffffffffffffffffffffffff16905090565b600060019054906101000a900473ffffffffffffffffffffffffffffffffffffffff1681565b6040518060400160405280600281526020017f565400000000000000000000000000000000000000000000000000000000000081525081565b60008060019054906101000a900473ffffffffffffffffffffffffffffffffffffffff1673ffffffffffffffffffffffffffffffffffffffff163373ffffffffffffffffffffffffffffffffffffffff161461080557600080fd5b61081a82600254610b6390919063ffffffff16565b60028190555061087282600160008673ffffffffffffffffffffffffffffffffffffffff1673ffffffffffffffffffffffffffffffffffffffff16815260200190815260200160002054610b6390919063ffffffff16565b600160008573ffffffffffffffffffffffffffffffffffffffff1673ffffffffffffffffffffffffffffffffffffffff168152602001908152602001600020819055508273ffffffffffffffffffffffffffffffffffffffff167fcc16f5dbb4873280815c1ee09dbd06736cffcc184412cf7a71a0fdb75d397ca5836040516108fb9190610e8e565b60405180910390a26001905092915050565b60008073ffffffffffffffffffffffffffffffffffffffff168373ffffffffffffffffffffffffffffffffffffffff16141561094857600080fd5b600160003273ffffffffffffffffffffffffffffffffffffffff1673ffffffffffffffffffffffffffffffffffffffff168152602001908152602001600020548211156109ca576040517f08c379a00000000000000000000000000000000000000000000000000000000081526004016109c190610e6e565b60405180910390fd5b610a1c82600160003273ffffffffffffffffffffffffffffffffffffffff1673ffffffffffffffffffffffffffffffffffffffff16815260200190815260200160002054610b6390919063ffffffff16565b600160003273ffffffffffffffffffffffffffffffffffffffff1673ffffffffffffffffffffffffffffffffffffffff16815260200190815260200160002081905550610ab182600160008673ffffffffffffffffffffffffffffffffffffffff1673ffffffffffffffffffffffffffffffffffffffff16815260200190815260200160002054610bb090919063ffffffff16565b600160008573ffffffffffffffffffffffffffffffffffffffff1673ffffffffffffffffffffffffffffffffffffffff168152602001908152602001600020819055508273ffffffffffffffffffffffffffffffffffffffff163273ffffffffffffffffffffffffffffffffffffffff167fddf252ad1be2c89b69c2b068fc378daa952ba7f163c4a11628f55a4df523b3ef84604051610b519190610e8e565b60405180910390a36001905092915050565b600082821115610b9c577f4e487b7100000000000000000000000000000000000000000000000000000000600052600160045260246000fd5b8183610ba89190610f36565b905092915050565b60008183610bbe9190610ee0565b905082811015610bf7577f4e487b7100000000000000000000000000000000000000000000000000000000600052600160045260246000fd5b92915050565b600081359050610c0c81611032565b92915050565b600081359050610c2181611049565b92915050565b600060208284031215610c3957600080fd5b6000610c4784828501610bfd565b91505092915050565b600080600060608486031215610c6557600080fd5b6000610c7386828701610bfd565b9350506020610c8486828701610bfd565b9250506040610c9586828701610c12565b9150509250925092565b60008060408385031215610cb257600080fd5b6000610cc085828601610bfd565b9250506020610cd185828601610c12565b9150509250929050565b610ce481610f6a565b82525050565b610cf381610f7c565b82525050565b6000610d0482610ec4565b610d0e8185610ecf565b9350610d1e818560208601610fbf565b610d2781611021565b840191505092915050565b6000610d3f600f83610ecf565b91507f42616c616e636520746f6f204c6f7700000000000000000000000000000000006000830152602082019050919050565b6000610d7f602683610ecf565b91507f6d73672e73656e64657220646f65736e2774206861766520656e6f756768206260008301527f616c616e636500000000000000000000000000000000000000000000000000006020830152604082019050919050565b610de181610fa8565b82525050565b610df081610fb2565b82525050565b6000602082019050610e0b6000830184610cdb565b92915050565b6000602082019050610e266000830184610cea565b92915050565b60006020820190508181036000830152610e468184610cf9565b905092915050565b60006020820190508181036000830152610e6781610d32565b9050919050565b60006020820190508181036000830152610e8781610d72565b9050919050565b6000602082019050610ea36000830184610dd8565b92915050565b6000602082019050610ebe6000830184610de7565b92915050565b600081519050919050565b600082825260208201905092915050565b6000610eeb82610fa8565b9150610ef683610fa8565b9250827fffffffffffffffffffffffffffffffffffffffffffffffffffffffffffffffff03821115610f2b57610f2a610ff2565b5b828201905092915050565b6000610f4182610fa8565b9150610f4c83610fa8565b925082821015610f5f57610f5e610ff2565b5b828203905092915050565b6000610f7582610f88565b9050919050565b60008115159050919050565b600073ffffffffffffffffffffffffffffffffffffffff82169050919050565b6000819050919050565b600060ff82169050919050565b60005b83811015610fdd578082015181840152602081019050610fc2565b83811115610fec576000848401525b50505050565b7f4e487b7100000000000000000000000000000000000000000000000000000000600052601160045260246000fd5b6000601f19601f8301169050919050565b61103b81610f6a565b811461104657600080fd5b50565b61105281610fa8565b811461105d57600080fd5b5056fea264697066735822122034e9f2d9c0fce094248b08d02fbe62d5b8f629121597ebb4ca26279b9d5afdf664736f6c63430008000033",
  "immutableReferences": {},
  "source": "// SPDX-License-Identifier: MIT \npragma solidity ^0.8.0;\n\n/**\n * @title SafeMath\n * @dev Math operations with safety checks that throw on error\n */\nlibrary SafeMath {\n\n  /**\n  * @dev Multiplies two numbers, throws on overflow.\n  */\n  function mul(uint256 a, uint256 b) internal pure returns (uint256 c) {\n    if (a == 0) {\n      return 0;\n    }\n    c = a * b;\n    assert(c / a == b);\n    return c;\n  }\n\n  /**\n  * @dev Integer division of two numbers, truncating the quotient.\n  */\n  function div(uint256 a, uint256 b) internal pure returns (uint256) {\n    // assert(b > 0); // Solidity automatically throws when dividing by 0\n    // uint256 c = a / b;\n    // assert(a == b * c + a % b); // There is no case in which this doesn't hold\n    return a / b;\n  }\n\n  /**\n  * @dev Subtracts two numbers, throws on overflow (i.e. if subtrahend is greater than minuend).\n  */\n  function sub(uint256 a, uint256 b) internal pure returns (uint256) {\n    assert(b <= a);\n    return a - b;\n  }\n\n  /**\n  * @dev Adds two numbers, throws on overflow.\n  */\n  function add(uint256 a, uint256 b) internal pure returns (uint256 c) {\n    c = a + b;\n    assert(c >= a);\n    return c;\n  }\n}\n\ncontract ERC20 {\n    using SafeMath for uint256;\n    \n    bool public mintingFinished = false;\n    \n    address public owner = msg.sender;\n    \n    mapping(address => uint256) balances;\n    \n    \n    string public constant name = \"VoteToken\";\n    string public constant symbol = \"VT\";\n    uint8 public constant decimals = 18;\n    uint256 totalSupply_;\n  \n    event Transfer(address indexed from, address indexed to, uint256 value);\n    event Mint(address indexed to, uint256 amount);\n    event Burn(address indexed from, uint256 amount);\n\n  \n    /**\n  * @dev Gets the balance of the specified address.\n  * @param _owner The address to query the the balance of.\n  * @return An uint256 representing the amount owned by the passed address.\n  */\n  function balanceOf(address _owner) public view returns (uint256) {\n    return balances[_owner];\n  }\n\n\n  /**\n  * @dev transfer token for a specified address\n  * @param _to The address to transfer to.\n  * @param _value The amount to be transferred.\n  */\n  function transfer(address _to, uint256 _value) public returns (bool) {\n    require(_to != address(0));\n    require(_value <= balances[tx.origin], \"msg.sender doesn't have enough balance\");\n\n    balances[tx.origin] = balances[tx.origin].sub(_value);\n    balances[_to] = balances[_to].add(_value);\n    emit Transfer(tx.origin, _to, _value);\n    return true;\n  }\n  \n    /**\n   * @dev Function to mint tokens\n   * @param _to The address that will receive the minted tokens.\n   * @param _amount The amount of tokens to mint.\n   * @return A boolean that indicates if the operation was successful.\n   */\n  function mint(address _to, uint256 _amount) onlyOwner canMint public returns (bool) {\n    totalSupply_ = totalSupply_.add(_amount);\n    balances[_to] = balances[_to].add(_amount);\n    emit Mint(_to, _amount);\n    emit Transfer(address(0), _to, _amount);\n    return true;\n  }\n\n  /**\n  * @dev Function to burn tokens\n  */\n  function burn(address _tokenOwner, uint256 _amount) onlyOwner public returns (bool) {\n    totalSupply_ = totalSupply_.sub(_amount);\n    balances[_tokenOwner] = balances[_tokenOwner].sub(_amount);\n    emit Burn(_tokenOwner, _amount);\n    return true;\n  }\n\n  /**\n   * @dev Transfer tokens from one address to another\n   * @param _from address The address which you want to send tokens from\n   * @param _to address The address which you want to transfer to\n   * @param _value uint256 the amount of tokens to be transferred\n   */\n  function transferFrom(address _from, address _to, uint256 _value) public returns (bool) {\n    require(_to != address(0));\n    require(_value <= balances[_from], \"Balance too Low\");\n    \n    balances[_from] = balances[_from].sub(_value);\n    balances[_to] = balances[_to].add(_value);\n    \n    emit Transfer(_from, _to, _value);\n    return true;\n  }\n  \n  function getOwner() public view returns (address){\n      return owner;\n  }\n\n\n   modifier onlyOwner() {\n    require(msg.sender == owner);\n    _;\n  }\n  \n  \n  modifier canMint() {\n    require(!mintingFinished);\n    _;\n  }\n\n}",
  "sourcePath": "/Users/chokyao/Desktop/School/Y3S2/IS4302/Project/contracts/ERC20.sol",
  "compiler": {
    "name": "solc",
    "version": "0.8.0+commit.c7dfd78e.Emscripten.clang"
  },
  "schemaVersion": "3.4.16",
  "updatedAt": "2024-04-11T15:21:08.935Z",
  "devdoc": {
    "kind": "dev",
    "methods": {
      "balanceOf(address)": {
        "details": "Gets the balance of the specified address.",
        "params": {
          "_owner": "The address to query the the balance of."
        },
        "returns": {
          "_0": "An uint256 representing the amount owned by the passed address."
        }
      },
      "burn(address,uint256)": {
        "details": "Function to burn tokens"
      },
      "mint(address,uint256)": {
        "details": "Function to mint tokens",
        "params": {
          "_amount": "The amount of tokens to mint.",
          "_to": "The address that will receive the minted tokens."
        },
        "returns": {
          "_0": "A boolean that indicates if the operation was successful."
        }
      },
      "transfer(address,uint256)": {
        "details": "transfer token for a specified address",
        "params": {
          "_to": "The address to transfer to.",
          "_value": "The amount to be transferred."
        }
      },
      "transferFrom(address,address,uint256)": {
        "details": "Transfer tokens from one address to another",
        "params": {
          "_from": "address The address which you want to send tokens from",
          "_to": "address The address which you want to transfer to",
          "_value": "uint256 the amount of tokens to be transferred"
        }
      }
    },
    "version": 1
  },
  "userdoc": {
    "kind": "user",
    "methods": {},
    "version": 1
  }
}