{
  "contractName": "ProjectHandler",
  "abi": [
    {
      "inputs": [
        {
          "internalType": "contract VoteToken",
          "name": "tokenContractAddress",
          "type": "address"
        }
      ],
      "stateMutability": "nonpayable",
      "type": "constructor"
    },
    {
      "anonymous": false,
      "inputs": [
        {
          "indexed": false,
          "internalType": "address",
          "name": "voter",
          "type": "address"
        }
      ],
      "name": "VoterRegistered",
      "type": "event"
    },
    {
      "inputs": [],
      "name": "admin",
      "outputs": [
        {
          "internalType": "address",
          "name": "",
          "type": "address"
        }
      ],
      "stateMutability": "view",
      "type": "function"
    },
    {
      "inputs": [],
      "name": "getNumOfProj",
      "outputs": [
        {
          "internalType": "uint256",
          "name": "",
          "type": "uint256"
        }
      ],
      "stateMutability": "view",
      "type": "function"
    },
    {
      "inputs": [],
      "name": "resetProjs",
      "outputs": [],
      "stateMutability": "nonpayable",
      "type": "function"
    },
    {
      "inputs": [
        {
          "internalType": "string",
          "name": "title",
          "type": "string"
        }
      ],
      "name": "addProj",
      "outputs": [
        {
          "internalType": "uint256",
          "name": "",
          "type": "uint256"
        }
      ],
      "stateMutability": "nonpayable",
      "type": "function"
    },
    {
      "inputs": [
        {
          "internalType": "uint256",
          "name": "projId",
          "type": "uint256"
        }
      ],
      "name": "getProjOwner",
      "outputs": [
        {
          "internalType": "address",
          "name": "",
          "type": "address"
        }
      ],
      "stateMutability": "view",
      "type": "function"
    },
    {
      "inputs": [
        {
          "internalType": "uint256",
          "name": "id",
          "type": "uint256"
        }
      ],
      "name": "getProjTitle",
      "outputs": [
        {
          "internalType": "string",
          "name": "",
          "type": "string"
        }
      ],
      "stateMutability": "view",
      "type": "function"
    }
  ],
  "bytecode": "0x608060405234801561001057600080fd5b506040516200102b3803806200102b833981810160405281019061003491906100d0565b806000806101000a81548173ffffffffffffffffffffffffffffffffffffffff021916908373ffffffffffffffffffffffffffffffffffffffff16021790555033600160006101000a81548173ffffffffffffffffffffffffffffffffffffffff021916908373ffffffffffffffffffffffffffffffffffffffff16021790555050610154565b6000815190506100ca8161013d565b92915050565b6000602082840312156100e257600080fd5b60006100f0848285016100bb565b91505092915050565b60006101048261011d565b9050919050565b6000610116826100f9565b9050919050565b600073ffffffffffffffffffffffffffffffffffffffff82169050919050565b6101468161010b565b811461015157600080fd5b50565b610ec780620001646000396000f3fe608060405234801561001057600080fd5b50600436106100625760003560e01c80630a7be1aa146100675780632fa3db9c146100715780634652216d146100a157806356b38152146100d1578063b3b031bf14610101578063f851a4401461011f575b600080fd5b61006f61013d565b005b61008b600480360381019061008691906108be565b610233565b6040516100989190610baf565b60405180910390f35b6100bb60048036038101906100b691906108ff565b6105b2565b6040516100c89190610ae9565b60405180910390f35b6100eb60048036038101906100e691906108ff565b6105ef565b6040516100f89190610b2d565b60405180910390f35b6101096106d1565b6040516101169190610baf565b60405180910390f35b6101276106de565b6040516101349190610ae9565b60405180910390f35b600160009054906101000a900473ffffffffffffffffffffffffffffffffffffffff1673ffffffffffffffffffffffffffffffffffffffff163373ffffffffffffffffffffffffffffffffffffffff16146101cd576040517f08c379a00000000000000000000000000000000000000000000000000000000081526004016101c490610b6f565b60405180910390fd5b600260006101db9190610704565b60005b6003811015610230576003600082815260200190815260200160002060006101000a81549073ffffffffffffffffffffffffffffffffffffffff0219169055808061022890610d93565b9150506101de565b50565b6000600160009054906101000a900473ffffffffffffffffffffffffffffffffffffffff1673ffffffffffffffffffffffffffffffffffffffff163373ffffffffffffffffffffffffffffffffffffffff16146102c5576040517f08c379a00000000000000000000000000000000000000000000000000000000081526004016102bc90610b6f565b60405180910390fd5b606460008054906101000a900473ffffffffffffffffffffffffffffffffffffffff1673ffffffffffffffffffffffffffffffffffffffff1663f1880b24326040518263ffffffff1660e01b81526004016103209190610ae9565b60206040518083038186803b15801561033857600080fd5b505afa15801561034c573d6000803e3d6000fd5b505050506040513d601f19601f820116820180604052508101906103709190610928565b10156103b1576040517f08c379a00000000000000000000000000000000000000000000000000000000081526004016103a890610b4f565b60405180910390fd5b60005b60028054905081101561048257600360006001836103d29190610c47565b815260200190815260200160002060009054906101000a900473ffffffffffffffffffffffffffffffffffffffff1673ffffffffffffffffffffffffffffffffffffffff163273ffffffffffffffffffffffffffffffffffffffff16141561046f576040517f08c379a000000000000000000000000000000000000000000000000000000000815260040161046690610b8f565b60405180910390fd5b808061047a90610d93565b9150506103b4565b506002829080600181540180825580915050600190039060005260206000200160009091909190915090805190602001906104be929190610725565b506000600280549050905060008054906101000a900473ffffffffffffffffffffffffffffffffffffffff1673ffffffffffffffffffffffffffffffffffffffff16631072cbea3360646040518363ffffffff1660e01b8152600401610525929190610b04565b600060405180830381600087803b15801561053f57600080fd5b505af1158015610553573d6000803e3d6000fd5b50505050326003600083815260200190815260200160002060006101000a81548173ffffffffffffffffffffffffffffffffffffffff021916908373ffffffffffffffffffffffffffffffffffffffff16021790555080915050919050565b60006003600083815260200190815260200160002060009054906101000a900473ffffffffffffffffffffffffffffffffffffffff169050919050565b606060026001836106009190610c9d565b81548110610637577f4e487b7100000000000000000000000000000000000000000000000000000000600052603260045260246000fd5b90600052602060002001805461064c90610d61565b80601f016020809104026020016040519081016040528092919081815260200182805461067890610d61565b80156106c55780601f1061069a576101008083540402835291602001916106c5565b820191906000526020600020905b8154815290600101906020018083116106a857829003601f168201915b50505050509050919050565b6000600280549050905090565b600160009054906101000a900473ffffffffffffffffffffffffffffffffffffffff1681565b508054600082559060005260206000209081019061072291906107ab565b50565b82805461073190610d61565b90600052602060002090601f016020900481019282610753576000855561079a565b82601f1061076c57805160ff191683800117855561079a565b8280016001018555821561079a579182015b8281111561079957825182559160200191906001019061077e565b5b5090506107a791906107cf565b5090565b5b808211156107cb57600081816107c291906107ec565b506001016107ac565b5090565b5b808211156107e85760008160009055506001016107d0565b5090565b5080546107f890610d61565b6000825580601f1061080a5750610829565b601f01602090049060005260206000209081019061082891906107cf565b5b50565b600061083f61083a84610bfb565b610bca565b90508281526020810184848401111561085757600080fd5b610862848285610d1f565b509392505050565b600082601f83011261087b57600080fd5b813561088b84826020860161082c565b91505092915050565b6000813590506108a381610e7a565b92915050565b6000815190506108b881610e7a565b92915050565b6000602082840312156108d057600080fd5b600082013567ffffffffffffffff8111156108ea57600080fd5b6108f68482850161086a565b91505092915050565b60006020828403121561091157600080fd5b600061091f84828501610894565b91505092915050565b60006020828403121561093a57600080fd5b6000610948848285016108a9565b91505092915050565b61095a81610cd1565b82525050565b61096981610d0d565b82525050565b600061097a82610c2b565b6109848185610c36565b9350610994818560208601610d2e565b61099d81610e69565b840191505092915050565b60006109b5602c83610c36565b91507f5573657220646f6573206e6f74206861766520656e6f75676820746f6b656e7360008301527f20666f72206465706f73697400000000000000000000000000000000000000006020830152604082019050919050565b6000610a1b602283610c36565b91507f4f6e6c792061646d696e2063616e20706572666f726d2074686973206163746960008301527f6f6e0000000000000000000000000000000000000000000000000000000000006020830152604082019050919050565b6000610a81603a83610c36565b91507f557365722063616e6e6f74207265676973746572206d6f7265207468616e203160008301527f2070726f6a65637420696e207468652073616d6520726f756e640000000000006020830152604082019050919050565b610ae381610d03565b82525050565b6000602082019050610afe6000830184610951565b92915050565b6000604082019050610b196000830185610951565b610b266020830184610960565b9392505050565b60006020820190508181036000830152610b47818461096f565b905092915050565b60006020820190508181036000830152610b68816109a8565b9050919050565b60006020820190508181036000830152610b8881610a0e565b9050919050565b60006020820190508181036000830152610ba881610a74565b9050919050565b6000602082019050610bc46000830184610ada565b92915050565b6000604051905081810181811067ffffffffffffffff82111715610bf157610bf0610e3a565b5b8060405250919050565b600067ffffffffffffffff821115610c1657610c15610e3a565b5b601f19601f8301169050602081019050919050565b600081519050919050565b600082825260208201905092915050565b6000610c5282610d03565b9150610c5d83610d03565b9250827fffffffffffffffffffffffffffffffffffffffffffffffffffffffffffffffff03821115610c9257610c91610ddc565b5b828201905092915050565b6000610ca882610d03565b9150610cb383610d03565b925082821015610cc657610cc5610ddc565b5b828203905092915050565b6000610cdc82610ce3565b9050919050565b600073ffffffffffffffffffffffffffffffffffffffff82169050919050565b6000819050919050565b6000610d1882610d03565b9050919050565b82818337600083830152505050565b60005b83811015610d4c578082015181840152602081019050610d31565b83811115610d5b576000848401525b50505050565b60006002820490506001821680610d7957607f821691505b60208210811415610d8d57610d8c610e0b565b5b50919050565b6000610d9e82610d03565b91507fffffffffffffffffffffffffffffffffffffffffffffffffffffffffffffffff821415610dd157610dd0610ddc565b5b600182019050919050565b7f4e487b7100000000000000000000000000000000000000000000000000000000600052601160045260246000fd5b7f4e487b7100000000000000000000000000000000000000000000000000000000600052602260045260246000fd5b7f4e487b7100000000000000000000000000000000000000000000000000000000600052604160045260246000fd5b6000601f19601f8301169050919050565b610e8381610d03565b8114610e8e57600080fd5b5056fea2646970667358221220de55118c8389b1b757ac8c3e3f58030ab9ac10e1d76964129aacfc6f1486890b64736f6c63430008000033",
  "immutableReferences": {},
  "source": "// SPDX-License-Identifier: MIT \npragma solidity ^0.8.0;\n\nimport './VoteToken.sol';\n\ncontract ProjectHandler {\n\n    VoteToken voteTokenContract;\n    address public admin;\n\n    string[] projList;\n    mapping(uint256 => address) projOwnerList; // projId -> owner, tracks addresses of the owner of projects in this round\n    \n    event VoterRegistered(address voter);\n\n    constructor(VoteToken tokenContractAddress) {\n        voteTokenContract = tokenContractAddress;\n        admin = msg.sender;\n    }\n\n    modifier onlyAdmin() {\n        require(msg.sender == admin, \"Only admin can perform this action\");\n        _;\n    }\n\n    function getNumOfProj() public view returns(uint256) {\n        return projList.length;\n    }\n\n    function resetProjs() public onlyAdmin() {\n        delete projList;\n        for (uint256 i = 0; i < 3; i++) {\n            delete projOwnerList[i];\n        }\n    }\n\n    // register project for voting, returns projId\n    function addProj(string memory title) public onlyAdmin() returns(uint256) { \n        require(voteTokenContract.checkToken(tx.origin) >= 100, \"User does not have enough tokens for deposit\");\n        for (uint256 i = 0; i < projList.length; i++) {\n            require(tx.origin != projOwnerList[i + 1], \"User cannot register more than 1 project in the same round\");\n        }\n\n        projList.push(title);\n        uint256 projId = projList.length;\n        voteTokenContract.transferToken(msg.sender, 100); \n        projOwnerList[projId] = tx.origin;\n        return projId;\n    }\n\n    function getProjOwner(uint256 projId) public view returns(address) {\n        return projOwnerList[projId];\n    }\n\n\n    //getter functions for testing\n    function getProjTitle(uint256 id) public view returns(string memory) {\n        return projList[id - 1];\n    }\n\n}",
  "sourcePath": "/Users/chokyao/Desktop/School/Y3S2/IS4302/Project/contracts/ProjectHandler.sol",
  "compiler": {
    "name": "solc",
    "version": "0.8.0+commit.c7dfd78e.Emscripten.clang"
  },
  "schemaVersion": "3.4.16",
  "updatedAt": "2024-04-11T15:21:08.943Z",
  "devdoc": {
    "kind": "dev",
    "methods": {},
    "version": 1
  },
  "userdoc": {
    "kind": "user",
    "methods": {},
    "version": 1
  }
}