{
  "contractName": "VoteToken",
  "abi": [
    {
      "inputs": [],
      "stateMutability": "nonpayable",
      "type": "constructor"
    },
    {
      "inputs": [
        {
          "internalType": "address",
          "name": "recipient",
          "type": "address"
        },
        {
          "internalType": "uint256",
          "name": "weiAmt",
          "type": "uint256"
        }
      ],
      "name": "getToken",
      "outputs": [
        {
          "internalType": "uint256",
          "name": "",
          "type": "uint256"
        }
      ],
      "stateMutability": "nonpayable",
      "type": "function"
    },
    {
      "inputs": [
        {
          "internalType": "address",
          "name": "tokenOwner",
          "type": "address"
        },
        {
          "internalType": "uint256",
          "name": "tokenAmount",
          "type": "uint256"
        }
      ],
      "name": "destroyToken",
      "outputs": [
        {
          "internalType": "uint256",
          "name": "",
          "type": "uint256"
        }
      ],
      "stateMutability": "nonpayable",
      "type": "function"
    },
    {
      "inputs": [
        {
          "internalType": "address",
          "name": "ad",
          "type": "address"
        }
      ],
      "name": "checkToken",
      "outputs": [
        {
          "internalType": "uint256",
          "name": "",
          "type": "uint256"
        }
      ],
      "stateMutability": "view",
      "type": "function"
    },
    {
      "inputs": [
        {
          "internalType": "address",
          "name": "recipient",
          "type": "address"
        },
        {
          "internalType": "uint256",
          "name": "amt",
          "type": "uint256"
        }
      ],
      "name": "transferToken",
      "outputs": [],
      "stateMutability": "nonpayable",
      "type": "function"
    },
    {
      "inputs": [
        {
          "internalType": "address",
          "name": "from",
          "type": "address"
        },
        {
          "internalType": "address",
          "name": "recipient",
          "type": "address"
        },
        {
          "internalType": "uint256",
          "name": "amt",
          "type": "uint256"
        }
      ],
      "name": "transferTokenFrom",
      "outputs": [],
      "stateMutability": "nonpayable",
      "type": "function"
    }
  ],
  "bytecode": "0x608060405234801561001057600080fd5b50600060405161001f906100c5565b604051809103906000f08015801561003b573d6000803e3d6000fd5b509050806000806101000a81548173ffffffffffffffffffffffffffffffffffffffff021916908373ffffffffffffffffffffffffffffffffffffffff16021790555033600160006101000a81548173ffffffffffffffffffffffffffffffffffffffff021916908373ffffffffffffffffffffffffffffffffffffffff160217905550506100d2565b61111180610a7f83390190565b61099e806100e16000396000f3fe608060405234801561001057600080fd5b50600436106100575760003560e01c80631072cbea1461005c57806343d7cce6146100785780639b1ad792146100a8578063ad221195146100d8578063f1880b24146100f4575b600080fd5b61007660048036038101906100719190610668565b610124565b005b610092600480360381019061008d9190610668565b610219565b60405161009f919061084f565b60405180910390f35b6100c260048036038101906100bd9190610668565b6102e9565b6040516100cf919061084f565b60405180910390f35b6100f260048036038101906100ed9190610619565b6103ed565b005b61010e600480360381019061010991906105f0565b6104e5565b60405161011b919061084f565b60405180910390f35b60008111610167576040517f08c379a000000000000000000000000000000000000000000000000000000000815260040161015e9061080f565b60405180910390fd5b60008054906101000a900473ffffffffffffffffffffffffffffffffffffffff1673ffffffffffffffffffffffffffffffffffffffff1663a9059cbb83836040518363ffffffff1660e01b81526004016101c29291906107e6565b602060405180830381600087803b1580156101dc57600080fd5b505af11580156101f0573d6000803e3d6000fd5b505050506040513d601f19601f8201168201806040525081019061021491906106a4565b505050565b600080662386f26fc100008361022f919061087b565b905060008054906101000a900473ffffffffffffffffffffffffffffffffffffffff1673ffffffffffffffffffffffffffffffffffffffff166340c10f1985836040518363ffffffff1660e01b815260040161028c9291906107e6565b602060405180830381600087803b1580156102a657600080fd5b505af11580156102ba573d6000803e3d6000fd5b505050506040513d601f19601f820116820180604052508101906102de91906106a4565b508091505092915050565b6000816102f5846104e5565b1015610336576040517f08c379a000000000000000000000000000000000000000000000000000000000815260040161032d9061082f565b60405180910390fd5b60008054906101000a900473ffffffffffffffffffffffffffffffffffffffff1673ffffffffffffffffffffffffffffffffffffffff16639dc29fac84846040518363ffffffff1660e01b81526004016103919291906107e6565b602060405180830381600087803b1580156103ab57600080fd5b505af11580156103bf573d6000803e3d6000fd5b505050506040513d601f19601f820116820180604052508101906103e391906106a4565b5081905092915050565b60008111610430576040517f08c379a00000000000000000000000000000000000000000000000000000000081526004016104279061080f565b60405180910390fd5b60008054906101000a900473ffffffffffffffffffffffffffffffffffffffff1673ffffffffffffffffffffffffffffffffffffffff166323b872dd8484846040518463ffffffff1660e01b815260040161048d939291906107af565b602060405180830381600087803b1580156104a757600080fd5b505af11580156104bb573d6000803e3d6000fd5b505050506040513d601f19601f820116820180604052508101906104df91906106a4565b50505050565b60008060008054906101000a900473ffffffffffffffffffffffffffffffffffffffff1673ffffffffffffffffffffffffffffffffffffffff166370a08231846040518263ffffffff1660e01b81526004016105419190610794565b60206040518083038186803b15801561055957600080fd5b505afa15801561056d573d6000803e3d6000fd5b505050506040513d601f19601f8201168201806040525081019061059191906106cd565b905080915050919050565b6000813590506105ab81610923565b92915050565b6000815190506105c08161093a565b92915050565b6000813590506105d581610951565b92915050565b6000815190506105ea81610951565b92915050565b60006020828403121561060257600080fd5b60006106108482850161059c565b91505092915050565b60008060006060848603121561062e57600080fd5b600061063c8682870161059c565b935050602061064d8682870161059c565b925050604061065e868287016105c6565b9150509250925092565b6000806040838503121561067b57600080fd5b60006106898582860161059c565b925050602061069a858286016105c6565b9150509250929050565b6000602082840312156106b657600080fd5b60006106c4848285016105b1565b91505092915050565b6000602082840312156106df57600080fd5b60006106ed848285016105db565b91505092915050565b6106ff816108ac565b82525050565b6000610712601a8361086a565b91507f4d7573742073656e64206174206c65617374203120746f6b656e0000000000006000830152602082019050919050565b600061075260178361086a565b91507f496e73756666696369656e7420565420746f206275726e0000000000000000006000830152602082019050919050565b61078e816108ea565b82525050565b60006020820190506107a960008301846106f6565b92915050565b60006060820190506107c460008301866106f6565b6107d160208301856106f6565b6107de6040830184610785565b949350505050565b60006040820190506107fb60008301856106f6565b6108086020830184610785565b9392505050565b6000602082019050818103600083015261082881610705565b9050919050565b6000602082019050818103600083015261084881610745565b9050919050565b60006020820190506108646000830184610785565b92915050565b600082825260208201905092915050565b6000610886826108ea565b9150610891836108ea565b9250826108a1576108a06108f4565b5b828204905092915050565b60006108b7826108ca565b9050919050565b60008115159050919050565b600073ffffffffffffffffffffffffffffffffffffffff82169050919050565b6000819050919050565b7f4e487b7100000000000000000000000000000000000000000000000000000000600052601260045260246000fd5b61092c816108ac565b811461093757600080fd5b50565b610943816108be565b811461094e57600080fd5b50565b61095a816108ea565b811461096557600080fd5b5056fea2646970667358221220670ef83f26b1f7885aa62c10c17b1ecbdf5cf923b1d970870c2d61e3e70a129464736f6c63430008000033608060405260008060006101000a81548160ff02191690831515021790555033600060016101000a81548173ffffffffffffffffffffffffffffffffffffffff021916908373ffffffffffffffffffffffffffffffffffffffff16021790555034801561006b57600080fd5b506110968061007b6000396000f3fe608060405234801561001057600080fd5b50600436106100a95760003560e01c806370a082311161007157806370a0823114610168578063893d20e8146101985780638da5cb5b146101b657806395d89b41146101d45780639dc29fac146101f2578063a9059cbb14610222576100a9565b806305d2035b146100ae57806306fdde03146100cc57806323b872dd146100ea578063313ce5671461011a57806340c10f1914610138575b600080fd5b6100b6610252565b6040516100c39190610e11565b60405180910390f35b6100d4610263565b6040516100e19190610e2c565b60405180910390f35b61010460048036038101906100ff9190610c50565b61029c565b6040516101119190610e11565b60405180910390f35b6101226104f3565b60405161012f9190610ea9565b60405180910390f35b610152600480360381019061014d9190610c9f565b6104f8565b60405161015f9190610e11565b60405180910390f35b610182600480360381019061017d9190610c27565b6106d9565b60405161018f9190610e8e565b60405180910390f35b6101a0610722565b6040516101ad9190610df6565b60405180910390f35b6101be61074b565b6040516101cb9190610df6565b60405180910390f35b6101dc610771565b6040516101e99190610e2c565b60405180910390f35b61020c60048036038101906102079190610c9f565b6107aa565b6040516102199190610e11565b60405180910390f35b61023c60048036038101906102379190610c9f565b61090d565b6040516102499190610e11565b60405180910390f35b60008054906101000a900460ff1681565b6040518060400160405280600981526020017f566f7465546f6b656e000000000000000000000000000000000000000000000081525081565b60008073ffffffffffffffffffffffffffffffffffffffff168373ffffffffffffffffffffffffffffffffffffffff1614156102d757600080fd5b600160008573ffffffffffffffffffffffffffffffffffffffff1673ffffffffffffffffffffffffffffffffffffffff16815260200190815260200160002054821115610359576040517f08c379a000000000000000000000000000000000000000000000000000000000815260040161035090610e4e565b60405180910390fd5b6103ab82600160008773ffffffffffffffffffffffffffffffffffffffff1673ffffffffffffffffffffffffffffffffffffffff16815260200190815260200160002054610b6390919063ffffffff16565b600160008673ffffffffffffffffffffffffffffffffffffffff1673ffffffffffffffffffffffffffffffffffffffff1681526020019081526020016000208190555061044082600160008673ffffffffffffffffffffffffffffffffffffffff1673ffffffffffffffffffffffffffffffffffffffff16815260200190815260200160002054610bb090919063ffffffff16565b600160008573ffffffffffffffffffffffffffffffffffffffff1673ffffffffffffffffffffffffffffffffffffffff168152602001908152602001600020819055508273ffffffffffffffffffffffffffffffffffffffff168473ffffffffffffffffffffffffffffffffffffffff167fddf252ad1be2c89b69c2b068fc378daa952ba7f163c4a11628f55a4df523b3ef846040516104e09190610e8e565b60405180910390a3600190509392505050565b601281565b60008060019054906101000a900473ffffffffffffffffffffffffffffffffffffffff1673ffffffffffffffffffffffffffffffffffffffff163373ffffffffffffffffffffffffffffffffffffffff161461055357600080fd5b60008054906101000a900460ff161561056b57600080fd5b61058082600254610bb090919063ffffffff16565b6002819055506105d882600160008673ffffffffffffffffffffffffffffffffffffffff1673ffffffffffffffffffffffffffffffffffffffff16815260200190815260200160002054610bb090919063ffffffff16565b600160008573ffffffffffffffffffffffffffffffffffffffff1673ffffffffffffffffffffffffffffffffffffffff168152602001908152602001600020819055508273ffffffffffffffffffffffffffffffffffffffff167f0f6798a560793a54c3bcfe86a93cde1e73087d944c0ea20544137d4121396885836040516106619190610e8e565b60405180910390a28273ffffffffffffffffffffffffffffffffffffffff16600073ffffffffffffffffffffffffffffffffffffffff167fddf252ad1be2c89b69c2b068fc378daa952ba7f163c4a11628f55a4df523b3ef846040516106c79190610e8e565b60405180910390a36001905092915050565b6000600160008373ffffffffffffffffffffffffffffffffffffffff1673ffffffffffffffffffffffffffffffffffffffff168152602001908152602001600020549050919050565b60008060019054906101000a900473ffffffffffffffffffffffffffffffffffffffff16905090565b600060019054906101000a900473ffffffffffffffffffffffffffffffffffffffff1681565b6040518060400160405280600281526020017f565400000000000000000000000000000000000000000000000000000000000081525081565b60008060019054906101000a900473ffffffffffffffffffffffffffffffffffffffff1673ffffffffffffffffffffffffffffffffffffffff163373ffffffffffffffffffffffffffffffffffffffff161461080557600080fd5b61081a82600254610b6390919063ffffffff16565b60028190555061087282600160008673ffffffffffffffffffffffffffffffffffffffff1673ffffffffffffffffffffffffffffffffffffffff16815260200190815260200160002054610b6390919063ffffffff16565b600160008573ffffffffffffffffffffffffffffffffffffffff1673ffffffffffffffffffffffffffffffffffffffff168152602001908152602001600020819055508273ffffffffffffffffffffffffffffffffffffffff167fcc16f5dbb4873280815c1ee09dbd06736cffcc184412cf7a71a0fdb75d397ca5836040516108fb9190610e8e565b60405180910390a26001905092915050565b60008073ffffffffffffffffffffffffffffffffffffffff168373ffffffffffffffffffffffffffffffffffffffff16141561094857600080fd5b600160003273ffffffffffffffffffffffffffffffffffffffff1673ffffffffffffffffffffffffffffffffffffffff168152602001908152602001600020548211156109ca576040517f08c379a00000000000000000000000000000000000000000000000000000000081526004016109c190610e6e565b60405180910390fd5b610a1c82600160003273ffffffffffffffffffffffffffffffffffffffff1673ffffffffffffffffffffffffffffffffffffffff16815260200190815260200160002054610b6390919063ffffffff16565b600160003273ffffffffffffffffffffffffffffffffffffffff1673ffffffffffffffffffffffffffffffffffffffff16815260200190815260200160002081905550610ab182600160008673ffffffffffffffffffffffffffffffffffffffff1673ffffffffffffffffffffffffffffffffffffffff16815260200190815260200160002054610bb090919063ffffffff16565b600160008573ffffffffffffffffffffffffffffffffffffffff1673ffffffffffffffffffffffffffffffffffffffff168152602001908152602001600020819055508273ffffffffffffffffffffffffffffffffffffffff163273ffffffffffffffffffffffffffffffffffffffff167fddf252ad1be2c89b69c2b068fc378daa952ba7f163c4a11628f55a4df523b3ef84604051610b519190610e8e565b60405180910390a36001905092915050565b600082821115610b9c577f4e487b7100000000000000000000000000000000000000000000000000000000600052600160045260246000fd5b8183610ba89190610f36565b905092915050565b60008183610bbe9190610ee0565b905082811015610bf7577f4e487b7100000000000000000000000000000000000000000000000000000000600052600160045260246000fd5b92915050565b600081359050610c0c81611032565b92915050565b600081359050610c2181611049565b92915050565b600060208284031215610c3957600080fd5b6000610c4784828501610bfd565b91505092915050565b600080600060608486031215610c6557600080fd5b6000610c7386828701610bfd565b9350506020610c8486828701610bfd565b9250506040610c9586828701610c12565b9150509250925092565b60008060408385031215610cb257600080fd5b6000610cc085828601610bfd565b9250506020610cd185828601610c12565b9150509250929050565b610ce481610f6a565b82525050565b610cf381610f7c565b82525050565b6000610d0482610ec4565b610d0e8185610ecf565b9350610d1e818560208601610fbf565b610d2781611021565b840191505092915050565b6000610d3f600f83610ecf565b91507f42616c616e636520746f6f204c6f7700000000000000000000000000000000006000830152602082019050919050565b6000610d7f602683610ecf565b91507f6d73672e73656e64657220646f65736e2774206861766520656e6f756768206260008301527f616c616e636500000000000000000000000000000000000000000000000000006020830152604082019050919050565b610de181610fa8565b82525050565b610df081610fb2565b82525050565b6000602082019050610e0b6000830184610cdb565b92915050565b6000602082019050610e266000830184610cea565b92915050565b60006020820190508181036000830152610e468184610cf9565b905092915050565b60006020820190508181036000830152610e6781610d32565b9050919050565b60006020820190508181036000830152610e8781610d72565b9050919050565b6000602082019050610ea36000830184610dd8565b92915050565b6000602082019050610ebe6000830184610de7565b92915050565b600081519050919050565b600082825260208201905092915050565b6000610eeb82610fa8565b9150610ef683610fa8565b9250827fffffffffffffffffffffffffffffffffffffffffffffffffffffffffffffffff03821115610f2b57610f2a610ff2565b5b828201905092915050565b6000610f4182610fa8565b9150610f4c83610fa8565b925082821015610f5f57610f5e610ff2565b5b828203905092915050565b6000610f7582610f88565b9050919050565b60008115159050919050565b600073ffffffffffffffffffffffffffffffffffffffff82169050919050565b6000819050919050565b600060ff82169050919050565b60005b83811015610fdd578082015181840152602081019050610fc2565b83811115610fec576000848401525b50505050565b7f4e487b7100000000000000000000000000000000000000000000000000000000600052601160045260246000fd5b6000601f19601f8301169050919050565b61103b81610f6a565b811461104657600080fd5b50565b61105281610fa8565b811461105d57600080fd5b5056fea264697066735822122034e9f2d9c0fce094248b08d02fbe62d5b8f629121597ebb4ca26279b9d5afdf664736f6c63430008000033",
  "immutableReferences": {},
  "source": "// SPDX-License-Identifier: MIT \npragma solidity ^0.8.0;\n\nimport \"./ERC20.sol\";\n\ncontract VoteToken {\n    ERC20 erc20Contract;\n    address owner;\n\n    constructor() {\n        ERC20 e = new ERC20();\n        erc20Contract = e;\n        owner = msg.sender;\n    }\n\n    /**\n    * @dev Function to give VT to the recipient for a given wei amount\n    * @param recipient address of the recipient that wants to buy the VT\n    * @param weiAmt uint256 amount indicating the amount of wei that was passed\n    * @return a uint256 representing the amount of VT bought by the msg.sender.\n    */\n    function getToken(address recipient, uint256 weiAmt) public returns(uint256) {\n        uint256 amt = weiAmt / 10000000000000000; // Get number of VT using 0.01 eth = 1 VT\n        erc20Contract.mint(recipient, amt);\n        return amt;\n    }\n\n    /**\n    * @dev Function to destroy a certain amount of VT from an owner\n    * @param tokenOwner address of the account whose VT will be destroyed\n    * @param tokenAmount uint256 amount indicating the number of tokens to be destroyed\n    * @return a uint256 representing the number of VT belonging to tokenOwner that was destroyed\n    */\n    function destroyToken(address tokenOwner, uint256 tokenAmount) public returns(uint256) {\n        require(checkToken(tokenOwner) >= tokenAmount, \"Insufficient VT to burn\");\n        erc20Contract.burn(tokenOwner, tokenAmount);\n        return tokenAmount;\n    }\n\n    /**\n    * @dev Function to check the amount of VT the ad has\n    * @param ad address of the recipient that wants to check their VT\n    * @return A uint256 representing the amount of VT owned by the msg.sender.\n    */\n    function checkToken(address ad) public view returns(uint256) {\n        uint256 credit = erc20Contract.balanceOf(ad);\n        return credit; \n    }\n\n    /**\n    * @dev Function to transfer the credit from tx.origin to the recipient\n    * @param recipient address of the recipient that will gain in VT\n    * @param amt uint256 aount of VT to transfer\n    */\n    function transferToken(address recipient, uint256 amt) public {\n        require(amt > 0, \"Must send at least 1 token\");\n        erc20Contract.transfer(recipient, amt);\n    }\n\n    /**\n    * @dev Function to transfer the credit from specified owner to the recipient\n    * @param from address of the owner that is giving out token\n    * @param recipient address of the recipient that will gain in VT\n    * @param amt uint256 aount of VT to transfer\n    */\n    function transferTokenFrom(address from, address recipient, uint256 amt) public {\n        require(amt > 0, \"Must send at least 1 token\");\n        erc20Contract.transferFrom(from, recipient, amt);\n    }\n\n}\n",
  "sourcePath": "/Users/chokyao/Desktop/School/Y3S2/IS4302/Project/contracts/VoteToken.sol",
  "compiler": {
    "name": "solc",
    "version": "0.8.0+commit.c7dfd78e.Emscripten.clang"
  },
  "schemaVersion": "3.4.16",
  "updatedAt": "2024-04-11T15:21:08.946Z",
  "devdoc": {
    "kind": "dev",
    "methods": {
      "checkToken(address)": {
        "details": "Function to check the amount of VT the ad has",
        "params": {
          "ad": "address of the recipient that wants to check their VT"
        },
        "returns": {
          "_0": "A uint256 representing the amount of VT owned by the msg.sender."
        }
      },
      "destroyToken(address,uint256)": {
        "details": "Function to destroy a certain amount of VT from an owner",
        "params": {
          "tokenAmount": "uint256 amount indicating the number of tokens to be destroyed",
          "tokenOwner": "address of the account whose VT will be destroyed"
        },
        "returns": {
          "_0": "a uint256 representing the number of VT belonging to tokenOwner that was destroyed"
        }
      },
      "getToken(address,uint256)": {
        "details": "Function to give VT to the recipient for a given wei amount",
        "params": {
          "recipient": "address of the recipient that wants to buy the VT",
          "weiAmt": "uint256 amount indicating the amount of wei that was passed"
        },
        "returns": {
          "_0": "a uint256 representing the amount of VT bought by the msg.sender."
        }
      },
      "transferToken(address,uint256)": {
        "details": "Function to transfer the credit from tx.origin to the recipient",
        "params": {
          "amt": "uint256 aount of VT to transfer",
          "recipient": "address of the recipient that will gain in VT"
        }
      },
      "transferTokenFrom(address,address,uint256)": {
        "details": "Function to transfer the credit from specified owner to the recipient",
        "params": {
          "amt": "uint256 aount of VT to transfer",
          "from": "address of the owner that is giving out token",
          "recipient": "address of the recipient that will gain in VT"
        }
      }
    },
    "version": 1
  },
  "userdoc": {
    "kind": "user",
    "methods": {},
    "version": 1
  }
}