{
  "contractName": "VotingHandler",
  "abi": [
    {
      "inputs": [
        {
          "internalType": "contract VoteToken",
          "name": "_voteTokenContract",
          "type": "address"
        }
      ],
      "stateMutability": "nonpayable",
      "type": "constructor"
    },
    {
      "anonymous": false,
      "inputs": [
        {
          "indexed": false,
          "internalType": "address",
          "name": "projOwner",
          "type": "address"
        }
      ],
      "name": "DepositRefunded",
      "type": "event"
    },
    {
      "anonymous": false,
      "inputs": [
        {
          "indexed": false,
          "internalType": "address",
          "name": "exchanger",
          "type": "address"
        },
        {
          "indexed": false,
          "internalType": "uint256",
          "name": "tokenAmt",
          "type": "uint256"
        },
        {
          "indexed": false,
          "internalType": "uint256",
          "name": "weiAmt",
          "type": "uint256"
        }
      ],
      "name": "ExchangeVT",
      "type": "event"
    },
    {
      "anonymous": false,
      "inputs": [
        {
          "indexed": false,
          "internalType": "address",
          "name": "to",
          "type": "address"
        },
        {
          "indexed": false,
          "internalType": "uint256",
          "name": "amount",
          "type": "uint256"
        }
      ],
      "name": "GetVT",
      "type": "event"
    },
    {
      "anonymous": false,
      "inputs": [
        {
          "indexed": false,
          "internalType": "address",
          "name": "projOwner",
          "type": "address"
        },
        {
          "indexed": false,
          "internalType": "uint256",
          "name": "projId",
          "type": "uint256"
        }
      ],
      "name": "ProjRegistered",
      "type": "event"
    },
    {
      "anonymous": false,
      "inputs": [
        {
          "indexed": false,
          "internalType": "uint256",
          "name": "projId1",
          "type": "uint256"
        },
        {
          "indexed": false,
          "internalType": "uint256",
          "name": "projId2",
          "type": "uint256"
        }
      ],
      "name": "VoteDrawn",
      "type": "event"
    },
    {
      "anonymous": false,
      "inputs": [],
      "name": "VoteVoided",
      "type": "event"
    },
    {
      "anonymous": false,
      "inputs": [
        {
          "indexed": false,
          "internalType": "uint256",
          "name": "projId",
          "type": "uint256"
        }
      ],
      "name": "VoteWon",
      "type": "event"
    },
    {
      "anonymous": false,
      "inputs": [
        {
          "indexed": false,
          "internalType": "uint256",
          "name": "projId",
          "type": "uint256"
        }
      ],
      "name": "Voted",
      "type": "event"
    },
    {
      "anonymous": false,
      "inputs": [],
      "name": "VotingEnded",
      "type": "event"
    },
    {
      "anonymous": false,
      "inputs": [
        {
          "indexed": false,
          "internalType": "uint256",
          "name": "timestamp",
          "type": "uint256"
        }
      ],
      "name": "VotingStarted",
      "type": "event"
    },
    {
      "inputs": [],
      "name": "status",
      "outputs": [
        {
          "internalType": "enum VotingHandler.Statuses",
          "name": "",
          "type": "uint8"
        }
      ],
      "stateMutability": "view",
      "type": "function"
    },
    {
      "inputs": [],
      "name": "getVT",
      "outputs": [],
      "stateMutability": "payable",
      "type": "function"
    },
    {
      "inputs": [
        {
          "internalType": "uint256",
          "name": "tokenAmt",
          "type": "uint256"
        }
      ],
      "name": "exchangeVT",
      "outputs": [],
      "stateMutability": "nonpayable",
      "type": "function"
    },
    {
      "inputs": [
        {
          "internalType": "string",
          "name": "title",
          "type": "string"
        }
      ],
      "name": "registerProj",
      "outputs": [],
      "stateMutability": "nonpayable",
      "type": "function"
    },
    {
      "inputs": [
        {
          "internalType": "uint256",
          "name": "id",
          "type": "uint256"
        },
        {
          "internalType": "uint256",
          "name": "tokenAmt",
          "type": "uint256"
        }
      ],
      "name": "vote",
      "outputs": [],
      "stateMutability": "nonpayable",
      "type": "function"
    },
    {
      "inputs": [],
      "name": "endVoting",
      "outputs": [],
      "stateMutability": "nonpayable",
      "type": "function"
    },
    {
      "inputs": [
        {
          "internalType": "uint256",
          "name": "id",
          "type": "uint256"
        }
      ],
      "name": "getProjTitle",
      "outputs": [
        {
          "internalType": "string",
          "name": "",
          "type": "string"
        }
      ],
      "stateMutability": "view",
      "type": "function"
    },
    {
      "inputs": [],
      "name": "getNumOfProj",
      "outputs": [
        {
          "internalType": "uint256",
          "name": "count",
          "type": "uint256"
        }
      ],
      "stateMutability": "view",
      "type": "function"
    },
    {
      "inputs": [
        {
          "internalType": "address",
          "name": "user",
          "type": "address"
        }
      ],
      "name": "getTokenBalance",
      "outputs": [
        {
          "internalType": "uint256",
          "name": "",
          "type": "uint256"
        }
      ],
      "stateMutability": "view",
      "type": "function"
    },
    {
      "inputs": [],
      "name": "getVoterListLength",
      "outputs": [
        {
          "internalType": "uint256",
          "name": "",
          "type": "uint256"
        }
      ],
      "stateMutability": "view",
      "type": "function"
    },
    {
      "inputs": [],
      "name": "checkStatus",
      "outputs": [
        {
          "internalType": "uint256",
          "name": "",
          "type": "uint256"
        }
      ],
      "stateMutability": "view",
      "type": "function"
    },
    {
      "inputs": [],
      "name": "getCurrTime",
      "outputs": [
        {
          "internalType": "uint256",
          "name": "",
          "type": "uint256"
        }
      ],
      "stateMutability": "view",
      "type": "function"
    },
    {
      "inputs": [],
      "name": "getStartTime",
      "outputs": [
        {
          "internalType": "uint256",
          "name": "",
          "type": "uint256"
        }
      ],
      "stateMutability": "view",
      "type": "function"
    }
  ],
  "bytecode": "0x60806040523480156200001157600080fd5b50604051620045403803806200454083398181016040528101906200003791906200017d565b806000806101000a81548173ffffffffffffffffffffffffffffffffffffffff021916908373ffffffffffffffffffffffffffffffffffffffff16021790555080604051620000869062000158565b620000929190620001ba565b604051809103906000f080158015620000af573d6000803e3d6000fd5b50600160006101000a81548173ffffffffffffffffffffffffffffffffffffffff021916908373ffffffffffffffffffffffffffffffffffffffff16021790555060018060146101000a81548160ff021916908360018111156200013c577f4e487b7100000000000000000000000000000000000000000000000000000000600052602160045260246000fd5b0217905550600060038190555060006004819055505062000261565b61102b806200351583390190565b600081519050620001778162000247565b92915050565b6000602082840312156200019057600080fd5b6000620001a08482850162000166565b91505092915050565b620001b4816200021f565b82525050565b6000602082019050620001d16000830184620001a9565b92915050565b6000620001e482620001ff565b9050919050565b6000620001f882620001d7565b9050919050565b600073ffffffffffffffffffffffffffffffffffffffff82169050919050565b60006200022c8262000233565b9050919050565b60006200024082620001ff565b9050919050565b6200025281620001eb565b81146200025e57600080fd5b50565b6132a480620002716000396000f3fe6080604052600436106100c25760003560e01c806359842dac1161007f578063b3b031bf11610059578063b3b031bf14610268578063b78fe98514610293578063c3403ddf1461029d578063c828371e146102b4576100c2565b806359842dac146101eb5780637661538a14610216578063b384abef1461023f576100c2565b80630218343c146100c7578063200d2ed2146100f257806339dc87481461011d5780633aecd0e3146101465780633b7104f21461018357806356b38152146101ae575b600080fd5b3480156100d357600080fd5b506100dc6102df565b6040516100e99190612e8b565b60405180910390f35b3480156100fe57600080fd5b506101076102e7565b6040516101149190612d2e565b60405180910390f35b34801561012957600080fd5b50610144600480360381019061013f919061286a565b6102fa565b005b34801561015257600080fd5b5061016d60048036038101906101689190612796565b610536565b60405161017a9190612e8b565b60405180910390f35b34801561018f57600080fd5b506101986105e9565b6040516101a59190612e8b565b60405180910390f35b3480156101ba57600080fd5b506101d560048036038101906101d0919061286a565b610683565b6040516101e29190612d49565b60405180910390f35b3480156101f757600080fd5b5061020061073c565b60405161020d9190612e8b565b60405180910390f35b34801561022257600080fd5b5061023d600480360381019061023891906127e8565b610749565b005b34801561024b57600080fd5b50610266600480360381019061026191906128bc565b6109b7565b005b34801561027457600080fd5b5061027d610f6f565b60405161028a9190612e8b565b60405180910390f35b61029b611016565b005b3480156102a957600080fd5b506102b261114e565b005b3480156102c057600080fd5b506102c9611baf565b6040516102d69190612e8b565b60405180910390f35b600042905090565b600160149054906101000a900460ff1681565b60008054906101000a900473ffffffffffffffffffffffffffffffffffffffff1673ffffffffffffffffffffffffffffffffffffffff1663f1880b24336040518263ffffffff1660e01b81526004016103539190612c45565b60206040518083038186803b15801561036b57600080fd5b505afa15801561037f573d6000803e3d6000fd5b505050506040513d601f19601f820116820180604052508101906103a39190612893565b8111156103e5576040517f08c379a00000000000000000000000000000000000000000000000000000000081526004016103dc90612dcb565b60405180910390fd5b60008054906101000a900473ffffffffffffffffffffffffffffffffffffffff1673ffffffffffffffffffffffffffffffffffffffff16639b1ad79233836040518363ffffffff1660e01b8152600401610440929190612cce565b602060405180830381600087803b15801561045a57600080fd5b505af115801561046e573d6000803e3d6000fd5b505050506040513d601f19601f820116820180604052508101906104929190612893565b506000661ff973cafa8000826104a89190612fd3565b905060003390508073ffffffffffffffffffffffffffffffffffffffff166108fc839081150290604051600060405180830381858888f193505050501580156104f5573d6000803e3d6000fd5b507feebfefa23f56eef5839c8bcf22f067cfd3de93354784d90850592ccc9eb413fa33848460405161052993929190612cf7565b60405180910390a1505050565b60008060009054906101000a900473ffffffffffffffffffffffffffffffffffffffff1673ffffffffffffffffffffffffffffffffffffffff1663f1880b24836040518263ffffffff1660e01b81526004016105929190612c45565b60206040518083038186803b1580156105aa57600080fd5b505afa1580156105be573d6000803e3d6000fd5b505050506040513d601f19601f820116820180604052508101906105e29190612893565b9050919050565b6000600180811115610624577f4e487b7100000000000000000000000000000000000000000000000000000000600052602160045260246000fd5b600160149054906101000a900460ff16600181111561066c577f4e487b7100000000000000000000000000000000000000000000000000000000600052602160045260246000fd5b141561067b5760009050610680565b600190505b90565b6060600160009054906101000a900473ffffffffffffffffffffffffffffffffffffffff1673ffffffffffffffffffffffffffffffffffffffff166356b38152836040518263ffffffff1660e01b81526004016106e09190612e8b565b60006040518083038186803b1580156106f857600080fd5b505afa15801561070c573d6000803e3d6000fd5b505050506040513d6000823e3d601f19601f820116820180604052508101906107359190612829565b9050919050565b6000600580549050905090565b60006001811115610783577f4e487b7100000000000000000000000000000000000000000000000000000000600052602160045260246000fd5b600160149054906101000a900460ff1660018111156107cb577f4e487b7100000000000000000000000000000000000000000000000000000000600052602160045260246000fd5b1480156107e85750620151806002546107e49190612f4c565b4210155b156107f6576107f561114e565b5b60018081111561082f577f4e487b7100000000000000000000000000000000000000000000000000000000600052602160045260246000fd5b600160149054906101000a900460ff166001811115610877577f4e487b7100000000000000000000000000000000000000000000000000000000600052602160045260246000fd5b146108b7576040517f08c379a00000000000000000000000000000000000000000000000000000000081526004016108ae90612d8b565b60405180910390fd5b6000600160009054906101000a900473ffffffffffffffffffffffffffffffffffffffff1673ffffffffffffffffffffffffffffffffffffffff16632fa3db9c836040518263ffffffff1660e01b81526004016109149190612d49565b602060405180830381600087803b15801561092e57600080fd5b505af1158015610942573d6000803e3d6000fd5b505050506040513d601f19601f820116820180604052508101906109669190612893565b90507f95375936180f5f1ef4eeb5f47ae2ac0a86c1e6dbb216159885d0bccc058d67f83382604051610999929190612cce565b60405180910390a160038114156109b3576109b2611bb9565b5b5050565b600060018111156109f1577f4e487b7100000000000000000000000000000000000000000000000000000000600052602160045260246000fd5b600160149054906101000a900460ff166001811115610a39577f4e487b7100000000000000000000000000000000000000000000000000000000600052602160045260246000fd5b14610a79576040517f08c379a0000000000000000000000000000000000000000000000000000000008152600401610a7090612dab565b60405180910390fd5b600082118015610a895750600482105b610ac8576040517f08c379a0000000000000000000000000000000000000000000000000000000008152600401610abf90612e6b565b60405180910390fd5b600160009054906101000a900473ffffffffffffffffffffffffffffffffffffffff1673ffffffffffffffffffffffffffffffffffffffff16634652216d836040518263ffffffff1660e01b8152600401610b239190612e8b565b60206040518083038186803b158015610b3b57600080fd5b505afa158015610b4f573d6000803e3d6000fd5b505050506040513d601f19601f82011682018060405250810190610b7391906127bf565b73ffffffffffffffffffffffffffffffffffffffff163373ffffffffffffffffffffffffffffffffffffffff161415610be1576040517f08c379a0000000000000000000000000000000000000000000000000000000008152600401610bd890612deb565b60405180910390fd5b6000600960003373ffffffffffffffffffffffffffffffffffffffff1673ffffffffffffffffffffffffffffffffffffffff1681526020019081526020016000205414610c63576040517f08c379a0000000000000000000000000000000000000000000000000000000008152600401610c5a90612e0b565b60405180910390fd5b8060008054906101000a900473ffffffffffffffffffffffffffffffffffffffff1673ffffffffffffffffffffffffffffffffffffffff1663f1880b24336040518263ffffffff1660e01b8152600401610cbd9190612c45565b60206040518083038186803b158015610cd557600080fd5b505afa158015610ce9573d6000803e3d6000fd5b505050506040513d601f19601f82011682018060405250810190610d0d9190612893565b1015610d4e576040517f08c379a0000000000000000000000000000000000000000000000000000000008152600401610d4590612e4b565b60405180910390fd5b6005339080600181540180825580915050600190039060005260206000200160009091909190916101000a81548173ffffffffffffffffffffffffffffffffffffffff021916908373ffffffffffffffffffffffffffffffffffffffff16021790555081600960003373ffffffffffffffffffffffffffffffffffffffff1673ffffffffffffffffffffffffffffffffffffffff1681526020019081526020016000208190555080600860003373ffffffffffffffffffffffffffffffffffffffff1673ffffffffffffffffffffffffffffffffffffffff1681526020019081526020016000208190555080600760008481526020019081526020016000206000828254610e5c9190612f4c565b925050819055506001600a60008481526020019081526020016000206000828254610e879190612f4c565b9250508190555060008054906101000a900473ffffffffffffffffffffffffffffffffffffffff1673ffffffffffffffffffffffffffffffffffffffff16631072cbea30836040518363ffffffff1660e01b8152600401610ee9929190612cce565b600060405180830381600087803b158015610f0357600080fd5b505af1158015610f17573d6000803e3d6000fd5b505050508060036000828254610f2d9190612f4c565b925050819055507f7f511e347bf51eed3be100b3194247d5207f05f3b33de7d31e3e8ee73199a04982604051610f639190612e8b565b60405180910390a15050565b6000600160009054906101000a900473ffffffffffffffffffffffffffffffffffffffff1673ffffffffffffffffffffffffffffffffffffffff1663b3b031bf6040518163ffffffff1660e01b815260040160206040518083038186803b158015610fd957600080fd5b505afa158015610fed573d6000803e3d6000fd5b505050506040513d601f19601f820116820180604052508101906110119190612893565b905090565b662386f26fc10000341015611060576040517f08c379a000000000000000000000000000000000000000000000000000000000815260040161105790612d6b565b60405180910390fd5b60008060009054906101000a900473ffffffffffffffffffffffffffffffffffffffff1673ffffffffffffffffffffffffffffffffffffffff166343d7cce633346040518363ffffffff1660e01b81526004016110be929190612cce565b602060405180830381600087803b1580156110d857600080fd5b505af11580156110ec573d6000803e3d6000fd5b505050506040513d601f19601f820116820180604052508101906111109190612893565b90507f3d0df846d2c18b4a8a75c2555b2d68e6ce87df827078fbe19980c4ec581fb1e53382604051611143929190612cce565b60405180910390a150565b60006001811115611188577f4e487b7100000000000000000000000000000000000000000000000000000000600052602160045260246000fd5b600160149054906101000a900460ff1660018111156111d0577f4e487b7100000000000000000000000000000000000000000000000000000000600052602160045260246000fd5b14611210576040517f08c379a000000000000000000000000000000000000000000000000000000000815260040161120790612e2b565b60405180910390fd5b6000600a6003546112219190612fa2565b90506000806000600190505b6003811161128157826007600083815260200190815260200160002054111561126e5760076000828152602001908152602001600020549250806004819055505b808061127990613116565b91505061122d565b506000600190505b600381116112f85782600760008381526020019081526020016000205414156112e5576001826112b99190612f4c565b915060068190806001815401808255809150506001900390600052602060002001600090919091909150555b80806112f090613116565b915050611289565b506000600190505b600381116114ad578360076000838152602001908152602001600020541061149a576000600160009054906101000a900473ffffffffffffffffffffffffffffffffffffffff1673ffffffffffffffffffffffffffffffffffffffff16634652216d836040518263ffffffff1660e01b815260040161137f9190612e8b565b60206040518083038186803b15801561139757600080fd5b505afa1580156113ab573d6000803e3d6000fd5b505050506040513d601f19601f820116820180604052508101906113cf91906127bf565b905060008054906101000a900473ffffffffffffffffffffffffffffffffffffffff1673ffffffffffffffffffffffffffffffffffffffff1663ad221195308360646040518463ffffffff1660e01b815260040161142f93929190612c60565b600060405180830381600087803b15801561144957600080fd5b505af115801561145d573d6000803e3d6000fd5b505050507f0a886913c34bf003c675b83205db1ecf3129cd8fa9ba98cf2cf2fb8183395360816040516114909190612c45565b60405180910390a1505b80806114a590613116565b915050611300565b506001811415611505576114bf611c63565b6114c7611e16565b7f1c3216cd715221e33b6ff3a64ac40aadd263f2c6009892c687a48d8722c9f21a6004546040516114f89190612e8b565b60405180910390a1611913565b60028114156118dd57600060019050600a60006006600181548110611553577f4e487b7100000000000000000000000000000000000000000000000000000000600052603260045260246000fd5b9060005260206000200154815260200190815260200160002054600a600060066000815481106115ac577f4e487b7100000000000000000000000000000000000000000000000000000000600052603260045260246000fd5b90600052602060002001548152602001908152602001600020541115611621576006600081548110611607577f4e487b7100000000000000000000000000000000000000000000000000000000600052603260045260246000fd5b90600052602060002001546004819055506000905061172b565b600a60006006600181548110611660577f4e487b7100000000000000000000000000000000000000000000000000000000600052603260045260246000fd5b9060005260206000200154815260200190815260200160002054600a600060066000815481106116b9577f4e487b7100000000000000000000000000000000000000000000000000000000600052603260045260246000fd5b9060005260206000200154815260200190815260200160002054101561172a576006600181548110611714577f4e487b7100000000000000000000000000000000000000000000000000000000600052603260045260246000fd5b9060005260206000200154600481905550600090505b5b801561188d576117c5600660008154811061176f577f4e487b7100000000000000000000000000000000000000000000000000000000600052603260045260246000fd5b906000526020600020015460066001815481106117b5577f4e487b7100000000000000000000000000000000000000000000000000000000600052603260045260246000fd5b9060005260206000200154611f6e565b7f2891a62e2d6943b216df9fa108c4de598b7ed4201ab84ad42e20f1bc2c7fe1226006600081548110611821577f4e487b7100000000000000000000000000000000000000000000000000000000600052603260045260246000fd5b90600052602060002001546006600181548110611867577f4e487b7100000000000000000000000000000000000000000000000000000000600052603260045260246000fd5b9060005260206000200154604051611880929190612ea6565b60405180910390a16118d7565b611895611c63565b61189d611e16565b7f1c3216cd715221e33b6ff3a64ac40aadd263f2c6009892c687a48d8722c9f21a6004546040516118ce9190612e8b565b60405180910390a15b50611912565b6118e56121ce565b7fba6de31c6af40e9c9fb227acb8e88d55307181c3c0d7b9b8fc1c597dbf64c9fa60405160405180910390a15b5b60018060146101000a81548160ff0219169083600181111561195e577f4e487b7100000000000000000000000000000000000000000000000000000000600052602160045260246000fd5b021790555060006002819055506000600381905550600060048190555060005b600580549050811015611a8e576000600582815481106119c7577f4e487b7100000000000000000000000000000000000000000000000000000000600052603260045260246000fd5b9060005260206000200160009054906101000a900473ffffffffffffffffffffffffffffffffffffffff169050600860008273ffffffffffffffffffffffffffffffffffffffff1673ffffffffffffffffffffffffffffffffffffffff16815260200190815260200160002060009055600960008273ffffffffffffffffffffffffffffffffffffffff1673ffffffffffffffffffffffffffffffffffffffff16815260200190815260200160002060009055508080611a8690613116565b91505061197e565b5060056000611a9d9190612613565b60066000611aab9190612634565b6000600190505b60038111611afb576007600082815260200190815260200160002060009055600a6000828152602001908152602001600020600090558080611af390613116565b915050611ab2565b50600160009054906101000a900473ffffffffffffffffffffffffffffffffffffffff1673ffffffffffffffffffffffffffffffffffffffff16630a7be1aa6040518163ffffffff1660e01b8152600401600060405180830381600087803b158015611b6657600080fd5b505af1158015611b7a573d6000803e3d6000fd5b505050507f7a19ed057db79e3c2fa0b97a54b43bef4fce74b31bb6c01af514b9a18a7f70ab60405160405180910390a1505050565b6000600254905090565b6000600160146101000a81548160ff02191690836001811115611c05577f4e487b7100000000000000000000000000000000000000000000000000000000600052602160045260246000fd5b021790555060018042611c18919061302d565b611c229190612f4c565b6002819055507fcf33babc496bb6dc2942b39cb7b75766bbbadf7da50d176ff8c513e991140239600254604051611c599190612e8b565b60405180910390a1565b60005b600580549050811015611e13576004546009600060058481548110611cb4577f4e487b7100000000000000000000000000000000000000000000000000000000600052603260045260246000fd5b9060005260206000200160009054906101000a900473ffffffffffffffffffffffffffffffffffffffff1673ffffffffffffffffffffffffffffffffffffffff1673ffffffffffffffffffffffffffffffffffffffff168152602001908152602001600020541415611d9257611d8d60058281548110611d5d577f4e487b7100000000000000000000000000000000000000000000000000000000600052603260045260246000fd5b9060005260206000200160009054906101000a900473ffffffffffffffffffffffffffffffffffffffff16612261565b611e00565b611dff60058281548110611dcf577f4e487b7100000000000000000000000000000000000000000000000000000000600052603260045260246000fd5b9060005260206000200160009054906101000a900473ffffffffffffffffffffffffffffffffffffffff1661237f565b5b8080611e0b90613116565b915050611c66565b50565b6000600160009054906101000a900473ffffffffffffffffffffffffffffffffffffffff1673ffffffffffffffffffffffffffffffffffffffff16634652216d6004546040518263ffffffff1660e01b8152600401611e759190612e8b565b60206040518083038186803b158015611e8d57600080fd5b505afa158015611ea1573d6000803e3d6000fd5b505050506040513d601f19601f82011682018060405250810190611ec591906127bf565b905060008054906101000a900473ffffffffffffffffffffffffffffffffffffffff1673ffffffffffffffffffffffffffffffffffffffff1663ad2211953083600760006004548152602001908152602001600020546040518463ffffffff1660e01b8152600401611f3993929190612c97565b600060405180830381600087803b158015611f5357600080fd5b505af1158015611f67573d6000803e3d6000fd5b5050505050565b60005b6005805490508110156121c957826009600060058481548110611fbd577f4e487b7100000000000000000000000000000000000000000000000000000000600052603260045260246000fd5b9060005260206000200160009054906101000a900473ffffffffffffffffffffffffffffffffffffffff1673ffffffffffffffffffffffffffffffffffffffff1673ffffffffffffffffffffffffffffffffffffffff1681526020019081526020016000205414806120d15750816009600060058481548110612069577f4e487b7100000000000000000000000000000000000000000000000000000000600052603260045260246000fd5b9060005260206000200160009054906101000a900473ffffffffffffffffffffffffffffffffffffffff1673ffffffffffffffffffffffffffffffffffffffff1673ffffffffffffffffffffffffffffffffffffffff16815260200190815260200160002054145b156121485761214360058281548110612113577f4e487b7100000000000000000000000000000000000000000000000000000000600052603260045260246000fd5b9060005260206000200160009054906101000a900473ffffffffffffffffffffffffffffffffffffffff1661253c565b6121b6565b6121b560058281548110612185577f4e487b7100000000000000000000000000000000000000000000000000000000600052603260045260246000fd5b9060005260206000200160009054906101000a900473ffffffffffffffffffffffffffffffffffffffff1661237f565b5b80806121c190613116565b915050611f71565b505050565b60005b60058054905081101561225e5761224b6005828154811061221b577f4e487b7100000000000000000000000000000000000000000000000000000000600052603260045260246000fd5b9060005260206000200160009054906101000a900473ffffffffffffffffffffffffffffffffffffffff1661253c565b808061225690613116565b9150506121d1565b50565b6000600860008373ffffffffffffffffffffffffffffffffffffffff1673ffffffffffffffffffffffffffffffffffffffff1681526020019081526020016000205490506005811061237b5760006005826122bc9190612fa2565b905060008054906101000a900473ffffffffffffffffffffffffffffffffffffffff1673ffffffffffffffffffffffffffffffffffffffff1663ad2211953085846040518463ffffffff1660e01b815260040161231b93929190612c97565b600060405180830381600087803b15801561233557600080fd5b505af1158015612349573d6000803e3d6000fd5b50505050806007600060045481526020019081526020016000206000828254612372919061302d565b92505081905550505b5050565b6000600860008373ffffffffffffffffffffffffffffffffffffffff1673ffffffffffffffffffffffffffffffffffffffff168152602001908152602001600020549050600060056002836123d49190612fd3565b6123de9190612fa2565b9050600382106124785760008054906101000a900473ffffffffffffffffffffffffffffffffffffffff1673ffffffffffffffffffffffffffffffffffffffff1663ad2211953085846040518463ffffffff1660e01b815260040161244593929190612c97565b600060405180830381600087803b15801561245f57600080fd5b505af1158015612473573d6000803e3d6000fd5b505050505b60008183612486919061302d565b905060008054906101000a900473ffffffffffffffffffffffffffffffffffffffff1673ffffffffffffffffffffffffffffffffffffffff16639b1ad79230836040518363ffffffff1660e01b81526004016124e3929190612cce565b602060405180830381600087803b1580156124fd57600080fd5b505af1158015612511573d6000803e3d6000fd5b505050506040513d601f19601f820116820180604052508101906125359190612893565b5050505050565b6000600860008373ffffffffffffffffffffffffffffffffffffffff1673ffffffffffffffffffffffffffffffffffffffff16815260200190815260200160002054905060008054906101000a900473ffffffffffffffffffffffffffffffffffffffff1673ffffffffffffffffffffffffffffffffffffffff1663ad2211953084846040518463ffffffff1660e01b81526004016125dd93929190612c97565b600060405180830381600087803b1580156125f757600080fd5b505af115801561260b573d6000803e3d6000fd5b505050505050565b50805460008255906000526020600020908101906126319190612655565b50565b50805460008255906000526020600020908101906126529190612655565b50565b5b8082111561266e576000816000905550600101612656565b5090565b600061268561268084612f00565b612ecf565b90508281526020810184848401111561269d57600080fd5b6126a88482856130d4565b509392505050565b60006126c36126be84612f00565b612ecf565b9050828152602081018484840111156126db57600080fd5b6126e68482856130e3565b509392505050565b6000813590506126fd81613240565b92915050565b60008151905061271281613240565b92915050565b600082601f83011261272957600080fd5b8135612739848260208601612672565b91505092915050565b600082601f83011261275357600080fd5b81516127638482602086016126b0565b91505092915050565b60008135905061277b81613257565b92915050565b60008151905061279081613257565b92915050565b6000602082840312156127a857600080fd5b60006127b6848285016126ee565b91505092915050565b6000602082840312156127d157600080fd5b60006127df84828501612703565b91505092915050565b6000602082840312156127fa57600080fd5b600082013567ffffffffffffffff81111561281457600080fd5b61282084828501612718565b91505092915050565b60006020828403121561283b57600080fd5b600082015167ffffffffffffffff81111561285557600080fd5b61286184828501612742565b91505092915050565b60006020828403121561287c57600080fd5b600061288a8482850161276c565b91505092915050565b6000602082840312156128a557600080fd5b60006128b384828501612781565b91505092915050565b600080604083850312156128cf57600080fd5b60006128dd8582860161276c565b92505060206128ee8582860161276c565b9150509250929050565b61290181613061565b82525050565b612910816130b0565b82525050565b61291f816130c2565b82525050565b600061293082612f30565b61293a8185612f3b565b935061294a8185602086016130e3565b6129538161321b565b840191505092915050565b600061296b602183612f3b565b91507f4174206c6561737420302e3031455448206e656564656420746f20676574205660008301527f54000000000000000000000000000000000000000000000000000000000000006020830152604082019050919050565b60006129d1603e83612f3b565b91507f506c65617365207761697420666f722063757272656e7420766f74696e67207260008301527f6f756e6420746f20656e64206265666f7265207265676973746572696e6700006020830152604082019050919050565b6000612a37601683612f3b565b91507f566f74696e6720686173206e6f742073746172746564000000000000000000006000830152602082019050919050565b6000612a77602883612f3b565b91507f5573657220646f6573206e6f74206861766520656e6f75676820565420746f2060008301527f65786368616e67650000000000000000000000000000000000000000000000006020830152604082019050919050565b6000612add602083612f3b565b91507f43616e6e6f7420766f746520666f7220796f7572206f776e2070726f6a6563746000830152602082019050919050565b6000612b1d601283612f3b565b91507f43616e6e6f7420766f74652074776963652100000000000000000000000000006000830152602082019050919050565b6000612b5d601683612f3b565b91507f566f74696e67206973206e6f7420756e646572776179000000000000000000006000830152602082019050919050565b6000612b9d602b83612f3b565b91507f5573657220646f6573206e6f74206861766520656e6f75676820746f6b656e7360008301527f20666f7220766f74696e670000000000000000000000000000000000000000006020830152604082019050919050565b6000612c03601283612f3b565b91507f496e76616c69642070726f6a65637420696400000000000000000000000000006000830152602082019050919050565b612c3f816130a6565b82525050565b6000602082019050612c5a60008301846128f8565b92915050565b6000606082019050612c7560008301866128f8565b612c8260208301856128f8565b612c8f6040830184612916565b949350505050565b6000606082019050612cac60008301866128f8565b612cb960208301856128f8565b612cc66040830184612c36565b949350505050565b6000604082019050612ce360008301856128f8565b612cf06020830184612c36565b9392505050565b6000606082019050612d0c60008301866128f8565b612d196020830185612c36565b612d266040830184612c36565b949350505050565b6000602082019050612d436000830184612907565b92915050565b60006020820190508181036000830152612d638184612925565b905092915050565b60006020820190508181036000830152612d848161295e565b9050919050565b60006020820190508181036000830152612da4816129c4565b9050919050565b60006020820190508181036000830152612dc481612a2a565b9050919050565b60006020820190508181036000830152612de481612a6a565b9050919050565b60006020820190508181036000830152612e0481612ad0565b9050919050565b60006020820190508181036000830152612e2481612b10565b9050919050565b60006020820190508181036000830152612e4481612b50565b9050919050565b60006020820190508181036000830152612e6481612b90565b9050919050565b60006020820190508181036000830152612e8481612bf6565b9050919050565b6000602082019050612ea06000830184612c36565b92915050565b6000604082019050612ebb6000830185612c36565b612ec86020830184612c36565b9392505050565b6000604051905081810181811067ffffffffffffffff82111715612ef657612ef56131ec565b5b8060405250919050565b600067ffffffffffffffff821115612f1b57612f1a6131ec565b5b601f19601f8301169050602081019050919050565b600081519050919050565b600082825260208201905092915050565b6000612f57826130a6565b9150612f62836130a6565b9250827fffffffffffffffffffffffffffffffffffffffffffffffffffffffffffffffff03821115612f9757612f9661315f565b5b828201905092915050565b6000612fad826130a6565b9150612fb8836130a6565b925082612fc857612fc761318e565b5b828204905092915050565b6000612fde826130a6565b9150612fe9836130a6565b9250817fffffffffffffffffffffffffffffffffffffffffffffffffffffffffffffffff04831182151516156130225761302161315f565b5b828202905092915050565b6000613038826130a6565b9150613043836130a6565b9250828210156130565761305561315f565b5b828203905092915050565b600061306c82613086565b9050919050565b60008190506130818261322c565b919050565b600073ffffffffffffffffffffffffffffffffffffffff82169050919050565b6000819050919050565b60006130bb82613073565b9050919050565b60006130cd826130a6565b9050919050565b82818337600083830152505050565b60005b838110156131015780820151818401526020810190506130e6565b83811115613110576000848401525b50505050565b6000613121826130a6565b91507fffffffffffffffffffffffffffffffffffffffffffffffffffffffffffffffff8214156131545761315361315f565b5b600182019050919050565b7f4e487b7100000000000000000000000000000000000000000000000000000000600052601160045260246000fd5b7f4e487b7100000000000000000000000000000000000000000000000000000000600052601260045260246000fd5b7f4e487b7100000000000000000000000000000000000000000000000000000000600052602160045260246000fd5b7f4e487b7100000000000000000000000000000000000000000000000000000000600052604160045260246000fd5b6000601f19601f8301169050919050565b6002811061323d5761323c6131bd565b5b50565b61324981613061565b811461325457600080fd5b50565b613260816130a6565b811461326b57600080fd5b5056fea264697066735822122062f069155406a4a1fa9c0b33830b29db8b248663fecb8097602ad1efa99cd3b364736f6c63430008000033608060405234801561001057600080fd5b506040516200102b3803806200102b833981810160405281019061003491906100d0565b806000806101000a81548173ffffffffffffffffffffffffffffffffffffffff021916908373ffffffffffffffffffffffffffffffffffffffff16021790555033600160006101000a81548173ffffffffffffffffffffffffffffffffffffffff021916908373ffffffffffffffffffffffffffffffffffffffff16021790555050610154565b6000815190506100ca8161013d565b92915050565b6000602082840312156100e257600080fd5b60006100f0848285016100bb565b91505092915050565b60006101048261011d565b9050919050565b6000610116826100f9565b9050919050565b600073ffffffffffffffffffffffffffffffffffffffff82169050919050565b6101468161010b565b811461015157600080fd5b50565b610ec780620001646000396000f3fe608060405234801561001057600080fd5b50600436106100625760003560e01c80630a7be1aa146100675780632fa3db9c146100715780634652216d146100a157806356b38152146100d1578063b3b031bf14610101578063f851a4401461011f575b600080fd5b61006f61013d565b005b61008b600480360381019061008691906108be565b610233565b6040516100989190610baf565b60405180910390f35b6100bb60048036038101906100b691906108ff565b6105b2565b6040516100c89190610ae9565b60405180910390f35b6100eb60048036038101906100e691906108ff565b6105ef565b6040516100f89190610b2d565b60405180910390f35b6101096106d1565b6040516101169190610baf565b60405180910390f35b6101276106de565b6040516101349190610ae9565b60405180910390f35b600160009054906101000a900473ffffffffffffffffffffffffffffffffffffffff1673ffffffffffffffffffffffffffffffffffffffff163373ffffffffffffffffffffffffffffffffffffffff16146101cd576040517f08c379a00000000000000000000000000000000000000000000000000000000081526004016101c490610b6f565b60405180910390fd5b600260006101db9190610704565b60005b6003811015610230576003600082815260200190815260200160002060006101000a81549073ffffffffffffffffffffffffffffffffffffffff0219169055808061022890610d93565b9150506101de565b50565b6000600160009054906101000a900473ffffffffffffffffffffffffffffffffffffffff1673ffffffffffffffffffffffffffffffffffffffff163373ffffffffffffffffffffffffffffffffffffffff16146102c5576040517f08c379a00000000000000000000000000000000000000000000000000000000081526004016102bc90610b6f565b60405180910390fd5b606460008054906101000a900473ffffffffffffffffffffffffffffffffffffffff1673ffffffffffffffffffffffffffffffffffffffff1663f1880b24326040518263ffffffff1660e01b81526004016103209190610ae9565b60206040518083038186803b15801561033857600080fd5b505afa15801561034c573d6000803e3d6000fd5b505050506040513d601f19601f820116820180604052508101906103709190610928565b10156103b1576040517f08c379a00000000000000000000000000000000000000000000000000000000081526004016103a890610b4f565b60405180910390fd5b60005b60028054905081101561048257600360006001836103d29190610c47565b815260200190815260200160002060009054906101000a900473ffffffffffffffffffffffffffffffffffffffff1673ffffffffffffffffffffffffffffffffffffffff163273ffffffffffffffffffffffffffffffffffffffff16141561046f576040517f08c379a000000000000000000000000000000000000000000000000000000000815260040161046690610b8f565b60405180910390fd5b808061047a90610d93565b9150506103b4565b506002829080600181540180825580915050600190039060005260206000200160009091909190915090805190602001906104be929190610725565b506000600280549050905060008054906101000a900473ffffffffffffffffffffffffffffffffffffffff1673ffffffffffffffffffffffffffffffffffffffff16631072cbea3360646040518363ffffffff1660e01b8152600401610525929190610b04565b600060405180830381600087803b15801561053f57600080fd5b505af1158015610553573d6000803e3d6000fd5b50505050326003600083815260200190815260200160002060006101000a81548173ffffffffffffffffffffffffffffffffffffffff021916908373ffffffffffffffffffffffffffffffffffffffff16021790555080915050919050565b60006003600083815260200190815260200160002060009054906101000a900473ffffffffffffffffffffffffffffffffffffffff169050919050565b606060026001836106009190610c9d565b81548110610637577f4e487b7100000000000000000000000000000000000000000000000000000000600052603260045260246000fd5b90600052602060002001805461064c90610d61565b80601f016020809104026020016040519081016040528092919081815260200182805461067890610d61565b80156106c55780601f1061069a576101008083540402835291602001916106c5565b820191906000526020600020905b8154815290600101906020018083116106a857829003601f168201915b50505050509050919050565b6000600280549050905090565b600160009054906101000a900473ffffffffffffffffffffffffffffffffffffffff1681565b508054600082559060005260206000209081019061072291906107ab565b50565b82805461073190610d61565b90600052602060002090601f016020900481019282610753576000855561079a565b82601f1061076c57805160ff191683800117855561079a565b8280016001018555821561079a579182015b8281111561079957825182559160200191906001019061077e565b5b5090506107a791906107cf565b5090565b5b808211156107cb57600081816107c291906107ec565b506001016107ac565b5090565b5b808211156107e85760008160009055506001016107d0565b5090565b5080546107f890610d61565b6000825580601f1061080a5750610829565b601f01602090049060005260206000209081019061082891906107cf565b5b50565b600061083f61083a84610bfb565b610bca565b90508281526020810184848401111561085757600080fd5b610862848285610d1f565b509392505050565b600082601f83011261087b57600080fd5b813561088b84826020860161082c565b91505092915050565b6000813590506108a381610e7a565b92915050565b6000815190506108b881610e7a565b92915050565b6000602082840312156108d057600080fd5b600082013567ffffffffffffffff8111156108ea57600080fd5b6108f68482850161086a565b91505092915050565b60006020828403121561091157600080fd5b600061091f84828501610894565b91505092915050565b60006020828403121561093a57600080fd5b6000610948848285016108a9565b91505092915050565b61095a81610cd1565b82525050565b61096981610d0d565b82525050565b600061097a82610c2b565b6109848185610c36565b9350610994818560208601610d2e565b61099d81610e69565b840191505092915050565b60006109b5602c83610c36565b91507f5573657220646f6573206e6f74206861766520656e6f75676820746f6b656e7360008301527f20666f72206465706f73697400000000000000000000000000000000000000006020830152604082019050919050565b6000610a1b602283610c36565b91507f4f6e6c792061646d696e2063616e20706572666f726d2074686973206163746960008301527f6f6e0000000000000000000000000000000000000000000000000000000000006020830152604082019050919050565b6000610a81603a83610c36565b91507f557365722063616e6e6f74207265676973746572206d6f7265207468616e203160008301527f2070726f6a65637420696e207468652073616d6520726f756e640000000000006020830152604082019050919050565b610ae381610d03565b82525050565b6000602082019050610afe6000830184610951565b92915050565b6000604082019050610b196000830185610951565b610b266020830184610960565b9392505050565b60006020820190508181036000830152610b47818461096f565b905092915050565b60006020820190508181036000830152610b68816109a8565b9050919050565b60006020820190508181036000830152610b8881610a0e565b9050919050565b60006020820190508181036000830152610ba881610a74565b9050919050565b6000602082019050610bc46000830184610ada565b92915050565b6000604051905081810181811067ffffffffffffffff82111715610bf157610bf0610e3a565b5b8060405250919050565b600067ffffffffffffffff821115610c1657610c15610e3a565b5b601f19601f8301169050602081019050919050565b600081519050919050565b600082825260208201905092915050565b6000610c5282610d03565b9150610c5d83610d03565b9250827fffffffffffffffffffffffffffffffffffffffffffffffffffffffffffffffff03821115610c9257610c91610ddc565b5b828201905092915050565b6000610ca882610d03565b9150610cb383610d03565b925082821015610cc657610cc5610ddc565b5b828203905092915050565b6000610cdc82610ce3565b9050919050565b600073ffffffffffffffffffffffffffffffffffffffff82169050919050565b6000819050919050565b6000610d1882610d03565b9050919050565b82818337600083830152505050565b60005b83811015610d4c578082015181840152602081019050610d31565b83811115610d5b576000848401525b50505050565b60006002820490506001821680610d7957607f821691505b60208210811415610d8d57610d8c610e0b565b5b50919050565b6000610d9e82610d03565b91507fffffffffffffffffffffffffffffffffffffffffffffffffffffffffffffffff821415610dd157610dd0610ddc565b5b600182019050919050565b7f4e487b7100000000000000000000000000000000000000000000000000000000600052601160045260246000fd5b7f4e487b7100000000000000000000000000000000000000000000000000000000600052602260045260246000fd5b7f4e487b7100000000000000000000000000000000000000000000000000000000600052604160045260246000fd5b6000601f19601f8301169050919050565b610e8381610d03565b8114610e8e57600080fd5b5056fea2646970667358221220de55118c8389b1b757ac8c3e3f58030ab9ac10e1d76964129aacfc6f1486890b64736f6c63430008000033",
  "immutableReferences": {},
  "source": "// SPDX-License-Identifier: MIT \npragma solidity ^0.8.0;\n\nimport './VoteToken.sol';\nimport './ProjectHandler.sol';\n\ncontract VotingHandler {\n\n    enum Statuses {\n        Voting,\n        Standby\n    }\n\n    VoteToken voteTokenContract;\n    ProjectHandler projectContract;\n\n    Statuses public status; // whether voting is currently underway\n    uint256 startTime; // starting time of a voting round\n    uint256 totalVTs; // total amount of VTs in voting pool\n    uint256 winner; // project ID of winner of current voting round\n\n    address[] voterList; // list of addresses that voted in this round\n    uint256[] tieProjs; // tracks the projects that are tied\n    mapping(uint256 => uint256) projTokenWeights; // projId -> tokenAmt, tracks how many votes each project has(num of tokens)\n    mapping(address => uint256) voterTokenWeights; // voter -> tokenAmt, tracks how many votes each voter gave(num of tokens)\n    mapping(address => uint256) votingChoice; // voter -> projId, tracks which project each user voted for\n    mapping(uint256 => uint256) numOfVoters; // projId -> numOfVoters, tracks the number of voters for each project\n\n    constructor(VoteToken _voteTokenContract) {\n        voteTokenContract = _voteTokenContract;\n        projectContract = new ProjectHandler(_voteTokenContract);\n        status = Statuses.Standby;\n        totalVTs = 0;\n        winner = 0;\n    }\n\n    event VotingStarted(uint256 timestamp); // event where a voting round has started\n    event GetVT(address to, uint256 amount); // event where an address obtains VT with Eth\n    event ProjRegistered(address projOwner, uint256 projId); // event where a user has registered a proj for voting\n    event Voted(uint256 projId); // event where someone voted for projId\n    event VoteWon(uint256 projId); // event where projId won the voting\n    event VoteVoided(); // event of voiding whole round of the voting\n    event VoteDrawn(uint256 projId1, uint256 projId2); // event of a tie between the top 2 projects\n    event VotingEnded(); // event where a voting round has ended\n    event ExchangeVT(address exchanger, uint256 tokenAmt, uint256 weiAmt); // event where user exchanged VT for eth\n    event DepositRefunded(address projOwner); // event where owner of project receives deposit refund\n\n    modifier checkTime() {\n        if (status == Statuses.Voting && block.timestamp >= startTime + 1 days) {\n            endVoting();\n        }\n        _;\n    }\n\n    // exchange eth for VT\n    function getVT() public payable { \n        require(msg.value >= 0.01 ether, \"At least 0.01ETH needed to get VT\");\n        uint256 val = voteTokenContract.getToken(msg.sender, msg.value);\n        \n        emit GetVT(msg.sender, val);\n    }\n    \n    // Exchange VT for eth\n    function exchangeVT(uint256 tokenAmt) public {\n        require(tokenAmt <= voteTokenContract.checkToken(msg.sender), \"User does not have enough VT to exchange\");\n        \n        voteTokenContract.destroyToken(msg.sender, tokenAmt); // destroy exchanged VT\n        uint256 weiAmt = tokenAmt * 0.009 ether; // only 90% refunded in terms of eth\n        address payable recipient = payable(msg.sender);\n        recipient.transfer(weiAmt);\n\n        emit ExchangeVT(msg.sender, tokenAmt, weiAmt);\n    }\n\n    function startVoting() internal { \n        status = Statuses.Voting;\n        startTime = block.timestamp - 1 + 1;\n\n        emit VotingStarted(startTime);\n    }\n\n    function registerProj(string memory title) public checkTime() { // register project for voting\n        require(status == Statuses.Standby, \"Please wait for current voting round to end before registering\");\n\n        uint256 projId = projectContract.addProj(title);\n        emit ProjRegistered(msg.sender, projId);\n\n        if (projId == 3) {\n            startVoting();\n        }\n    }\n  \n    function vote(uint256 id, uint256 tokenAmt) public { // vote for a project\n        require(status == Statuses.Voting, \"Voting has not started\");\n        require(id > 0 && id < 4, \"Invalid project id\");\n        require(msg.sender != projectContract.getProjOwner(id), \"Cannot vote for your own project\");\n        require(votingChoice[msg.sender] == 0, \"Cannot vote twice!\");\n        require(voteTokenContract.checkToken(msg.sender) >= tokenAmt, \"User does not have enough tokens for voting\");\n        \n        voterList.push(msg.sender);\n        votingChoice[msg.sender] = id;\n        voterTokenWeights[msg.sender] = tokenAmt;\n        projTokenWeights[id] += tokenAmt;\n        numOfVoters[id] += 1;\n        voteTokenContract.transferToken(address(this), tokenAmt);\n        totalVTs += tokenAmt;\n\n        emit Voted(id);\n    }\n\n    // reward voter of winning project with 20% of their voted VTs\n    function rewardWinningVoter(address voter) internal {\n        uint256 amt = voterTokenWeights[voter];\n        if (amt >= 5) { // 5 is min amt required to receive at least 1 token as reward \n            uint256 rewardAmt = amt / 5;\n            voteTokenContract.transferTokenFrom(address(this), voter, rewardAmt);\n            projTokenWeights[winner] -= rewardAmt;\n        }\n    }\n\n    // refund voter of losing project with 40% of their voted VTs\n    function refundLosingVoter(address voter) internal {\n        uint256 amt = voterTokenWeights[voter];\n        uint256 refundAmt = (amt * 2) / 5;\n        if (amt >= 3) { // 3 is min amt required to receive at least 1 token as refund\n            voteTokenContract.transferTokenFrom(address(this), voter, refundAmt);\n        }\n        uint256 burnAmt = amt - refundAmt;\n        voteTokenContract.destroyToken(address(this), burnAmt);\n    }\n\n    function fullRefundVoter(address voter) internal {\n        uint256 refundAmt = voterTokenWeights[voter];\n        voteTokenContract.transferTokenFrom(address(this), voter, refundAmt);\n    }\n\n    function rewardProjWinner() internal {\n        address winnerAdd = projectContract.getProjOwner(winner);\n        voteTokenContract.transferTokenFrom(address(this), winnerAdd, projTokenWeights[winner]);\n    }   \n\n    // distribute tokens to voters when there is 1 winner\n    function distributeTokens() internal {\n        for (uint256 k = 0; k < voterList.length; k++) {\n            if (votingChoice[voterList[k]] == winner) { // winning voters\n                rewardWinningVoter(voterList[k]);\n            } else { // losing voters\n                refundLosingVoter(voterList[k]);\n            }\n        }\n    }\n\n    // distribute tokens to voters when 2 projects are tied\n    function distributeTokensOnTie(uint256 projId1, uint256 projId2) internal {\n        for (uint256 k = 0; k < voterList.length; k++) {\n            if (votingChoice[voterList[k]] == projId1 || votingChoice[voterList[k]] == projId2) { // winning voters\n                fullRefundVoter(voterList[k]);\n            } else { // losing voters\n                refundLosingVoter(voterList[k]);\n            }\n        }\n    }\n\n    // distribute tokens to voters when all 3 projects are tied and voting round is voided\n    function distributeTokensOnVoid() internal {\n        for (uint256 k = 0; k < voterList.length; k++) {\n            fullRefundVoter(voterList[k]);\n        }\n    }\n    \n    function endVoting() public {\n        require(status == Statuses.Voting, \"Voting is not underway\");\n        \n        uint256 minVotes = totalVTs / 10; // required votes for refund of deposit (10% of totalVTs)\n        uint256 maxProjWeight = 0;\n        uint256 countOfMaxWeight = 0; // tracks the number of projects with the highest votes (for ties)\n        \n        // get max proj weight (highest num of votes for a proj)\n        for (uint256 i = 1; i <= 3; i++) { // loop through the 3 projects\n            if (projTokenWeights[i] > maxProjWeight) {\n                maxProjWeight = projTokenWeights[i];\n                winner = i;\n            } \n        }\n\n        // check for the number of ties\n        for (uint256 i = 1; i <= 3; i++) { // loop through the 3 projects\n            if (projTokenWeights[i] == maxProjWeight) {\n                countOfMaxWeight += 1;\n                tieProjs.push(i);\n            } \n        }\n\n        // refund deposits if viable\n        for (uint256 j = 1; j <= 3; j++) {\n            if (projTokenWeights[j] >= minVotes) {\n                address projOwner = projectContract.getProjOwner(j);\n                voteTokenContract.transferTokenFrom(address(this), projOwner, 100);\n                emit DepositRefunded(projOwner);\n            }\n        }\n\n        // determine outcome of voting\n        if (countOfMaxWeight == 1) { // 1 winner\n            distributeTokens();\n            rewardProjWinner(); \n            emit VoteWon(winner);\n\n        } else if (countOfMaxWeight == 2) { // 2 winners so proceed to tiebreaker \n            bool hasDrawn = true;\n            if (numOfVoters[tieProjs[0]] > numOfVoters[tieProjs[1]]) {\n                winner = tieProjs[0];              \n                hasDrawn = false;  \n            } else if (numOfVoters[tieProjs[0]] < numOfVoters[tieProjs[1]]) {\n                winner = tieProjs[1];\n                hasDrawn = false;\n            } \n            \n            if (hasDrawn) { // tiebreaker draws again\n                distributeTokensOnTie(tieProjs[0], tieProjs[1]);\n                emit VoteDrawn(tieProjs[0], tieProjs[1]);\n            } else { // a winner is decided\n                distributeTokens(); \n                rewardProjWinner(); \n                emit VoteWon(winner);\n            }\n\n        } else { // 3 projects all tied, void the round and fully refund all votes\n            distributeTokensOnVoid();\n            emit VoteVoided();\n        }\n\n        // Reset all variables to allow for next round of voting\n        status = Statuses.Standby;\n        startTime = 0;\n        totalVTs = 0;\n        winner = 0;\n        \n        for (uint256 i = 0; i < voterList.length; i++) {\n            address voter = voterList[i];\n            delete voterTokenWeights[voter];\n            delete votingChoice[voter];\n        }\n\n        delete voterList;\n        delete tieProjs;\n\n        for (uint256 i = 1; i <= 3; i++) {\n            delete projTokenWeights[i];\n            delete numOfVoters[i];\n        }\n\n        projectContract.resetProjs();\n        emit VotingEnded();\n    }\n\n\n    // getter functions for testing\n    function getProjTitle(uint256 id) public view returns(string memory) {\n        return projectContract.getProjTitle(id);\n    }\n\n    function getNumOfProj() public view returns(uint256 count) {\n        return projectContract.getNumOfProj();\n    }\n\n    function getTokenBalance(address user) public view returns(uint256) {\n        return voteTokenContract.checkToken(user);\n    }\n\n    function getVoterListLength() public view returns (uint256) {\n        return voterList.length;\n    }\n\n    function checkStatus() public view returns (uint256) {\n        if (status == Statuses.Standby) {\n            return 0;\n        } else {\n            return 1;\n        }\n    }\n\n    function getCurrTime() public view returns (uint256) {\n        return block.timestamp;\n    }\n\n    function getStartTime() public view returns (uint256) {\n        return startTime;\n    }\n}",
  "sourcePath": "/Users/chokyao/Desktop/School/Y3S2/IS4302/Project/contracts/VotingHandler.sol",
  "compiler": {
    "name": "solc",
    "version": "0.8.0+commit.c7dfd78e.Emscripten.clang"
  },
  "schemaVersion": "3.4.16",
  "updatedAt": "2024-04-11T15:21:08.951Z",
  "devdoc": {
    "kind": "dev",
    "methods": {},
    "version": 1
  },
  "userdoc": {
    "kind": "user",
    "methods": {},
    "version": 1
  }
}